:100000000C945D000C9485000C9485000C94850084
:100010000C9485000C9485000C9485000C9485004C
:100020000C9485000C9485000C9485000C9485003C
:100030000C9485000C9485000C9485000C9485002C
:100040000C94CF040C9485000C949D040C947704BC
:100050000C9485000C9485000C9485000C9485000C
:100060000C9419050C9485000000000800020100A2
:100070000003040700000000000000000000000072
:10008000250028002B0000000000240027002A0083
:10009000040404040404040402020202020203032E
:1000A0000303030301020408102040800102040836
:1000B0001020010204081020340611241FBECFEFC7
:1000C000D8E0DEBFCDBF11E0A0E0B1E0ECE0F9E1A7
:1000D00002C005900D92AA33B107D9F722E0AAE336
:1000E000B1E001C01D92A738B207E1F710E0CDE5FD
:1000F000D0E004C02197FE010E94590BCC35D107F6
:10010000C9F70E9497060C94840C0C94000081E4BB
:1001100080937C0080917A00806480937A00809143
:100120007A0086FDFCCF8091780090917900089547
:10013000AF92BF92CF92DF92EF92FF920F931F93F5
:10014000CF93DF936C017B018B01040F151FEB0133
:100150005E01AE18BF08C017D10759F06991D601EA
:10016000ED91FC910190F081E02DC6010995892B5C
:1001700079F7C501DF91CF911F910F91FF90EF901B
:10018000DF90CF90BF90AF900895FC01538D448DC8
:10019000252F30E0842F90E0821B930B541710F032
:1001A000CF96089501970895FC01918D828D98173F
:1001B00061F0A28DAE0FBF2FB11D5D968C91928D17
:1001C0009F5F9F73928F90E008958FEF9FEF089548
:1001D000FC01918D828D981731F0828DE80FF11D11
:1001E000858D90E008958FEF9FEF0895FC01918D2C
:1001F000228D892F90E0805C9F4F821B91098F7325
:100200009927089588ED91E00E94F60021E0892B5E
:1002100009F420E0822F089580E090E0892B29F0F6
:100220000E94020181110C9400000895FC01A48D2C
:10023000A80FB92FB11DA35ABF4F2C91848D90E008
:1002400001968F739927848FA689B7892C93A089EB
:10025000B1898C91837080648C93938D848D981375
:1002600006C00288F389E02D80818F7D8083089508
:10027000EF92FF920F931F93CF93DF93EC0181E0F6
:10028000888F9B8D8C8D98131AC0E889F98980819D
:1002900085FF15C09FB7F894EE89FF896083E889D0
:1002A000F98980818370806480839FBF81E090E0C2
:1002B000DF91CF911F910F91FF90EF900895F62E4F
:1002C0000B8D10E00F5F1F4F0F731127E02E8C8DE9
:1002D0008E110CC00FB607FCFACFE889F98980812E
:1002E00085FFF5CFCE010E941601F1CFEB8DEC0F0B
:1002F000FD2FF11DE35AFF4FF0829FB7F8940B8F4B
:10030000EA89FB8980818062CFCFCF93DF93EC01B4
:10031000888D8823B9F0AA89BB89E889F9898C91ED
:1003200085FD03C0808186FD0DC00FB607FCF7CFA9
:100330008C9185FFF2CF808185FFEDCFCE010E94A9
:100340001601E9CFDF91CF91089590E0FC01E859C3
:10035000FF4F2491FC01EC55FF4F3491FC01E05715
:10036000FF4FE491EE23C9F0222339F0233001F14D
:10037000A8F4213019F1223029F1F0E0EE0FFF1F2F
:10038000E458FF4FA591B4918FB7F894EC916111A7
:1003900026C030953E233C938FBF08952730A9F0A7
:1003A0002830C9F0243049F7809180008F7D03C048
:1003B000809180008F7780938000DFCF84B58F7726
:1003C00084BDDBCF84B58F7DFBCF8091B0008F776C
:1003D0008093B000D2CF8091B0008F7DF9CF3E2BBB
:1003E000DACF3FB7F8948091840190918501A09174
:1003F0008601B091870126B5A89B05C02F3F19F053
:100400000196A11DB11D3FBFBA2FA92F982F882794
:10041000BC01CD01620F711D811D911D42E0660F6F
:10042000771F881F991F4A95D1F708951F93CF937F
:10043000DF93C1E0C0933B01882399F1D091B800CC
:100440001091BA008091BC008A7B8093BC0060E070
:1004500082E10E94A50160E083E10E94A501109263
:10046000AE01C093AD011092880161E082E10E946B
:10047000A50161E083E10E94A5018091B9008E7F12
:100480008093B9008091B9008D7F8093B90088E492
:100490008093B80085E48093BC001093BA00D09399
:1004A000B800DF91CF911F910895CF92DF92EF9224
:1004B000FF920F931F93CF93DF93D091D70181E0E9
:1004C000D13208F09CC0C091D6010E94F1016B01AD
:1004D0007C018091AE0181116CC082E08093AE01FD
:1004E00081E08093AD018FEF8093AC011092AB015E
:1004F000D093AA01A6EBB1E0EAE8F1E080E0D813DE
:100500008DC01092890180918901CC0FC82BC093B6
:10051000890180918801813009F084C0109288019E
:100520000E94F1016B017C01809189018093BB00E5
:100530008091B0019091B101A091B201B091B3014D
:10054000892B8A2B8B2BA1F00E94F1010091B00125
:100550001091B1012091B2013091B3016C197D0964
:100560008E099F09061717072807390708F442C0A4
:100570008091BC0083FDD8CF85EC8093BC000E94A5
:10058000F1016B017C018091AE01823009F44CC015
:100590008091AC018F3F09F469C08091AC01803239
:1005A00009F466C08091AC01803309F463C084E033
:1005B00026C08091B0019091B101A091B201B0919B
:1005C000B301892B8A2B8B2B09F483CF0E94F10175
:1005D0000091B0011091B1012091B2013091B301AD
:1005E0006C197D098E099F09061717072807390717
:1005F00008F06FCF8091AF010E94160285E0109243
:10060000B5011092D7011092B401DF91CF911F91E3
:100610000F91FF90EF90DF90CF9008959D9191936F
:100620008F5F6DCF85EEA9CF8091B0019091B10120
:10063000A091B201B091B301892B8A2B8B2B09F4C5
:10064000A2CF0E94F1010091B0011091B10120915F
:10065000B2013091B3016C197D098E099F0906170B
:1006600017072807390708F08ECFC4CF80E0C7CF1F
:1006700082E0C5CF83E0C3CF20915C01260F3327F2
:10068000331F21323105ECF42091AE01FC0190E0E2
:1006900080E0243069F082E00895A0915C0121910E
:1006A000AC01445C5E4FA40FB52FB11D2C93019695
:1006B000861798F380915C01680F60935C0180E07D
:1006C000089581E0089508958FEF9FEF08958FEFCB
:1006D0009FEF089580913A0190E09195819591095D
:1006E0000895CF92DF92EF92FF920F931F93CF93D3
:1006F000DF937C01CB018A012091B401222389F090
:10070000EB016B01C40ED51ECC15DD0569F06991B6
:10071000D701ED91FC910190F081E02DC701099581
:10072000F3CF642F0E943C03C801DF91CF911F914A
:100730000F91FF90EF90DF90CF900895CF93DF93CC
:100740001F92CDB7DEB769832091B4012223F9F05F
:100750002091D701203258F021E030E0FC013383B2
:10076000228390E080E00F90DF91CF9108958091F7
:10077000B501E82FF0E0EA54FE4F998190838F5F36
:100780008093B5018093D70181E090E0ECCF61E0E8
:10079000CE0101960E943C03F7CF90E080E00895DF
:1007A000CF93C62F91E09093B40190E49093D6013B
:1007B0001092B5011092D701682F85E792E00E9450
:1007C0009E036C2F85E792E00E949E0360E085E720
:1007D00092E00E949E03CF910C945502FC0101907F
:1007E0000020E9F73197AF01481B590BBC0188ED98
:1007F00091E00C9498008F929F92AF92BF920F93CA
:100800001F93CF93DF93CDB7DEB7A1970FB6F894C0
:10081000DEBF0FBECDBF19A2423008F44AE08E0100
:100820000F5D1F4F842E912CB12CA12CA50194019A
:100830000E94370BE62FB901CA01EA30F4F4E05DFB
:10084000D801EE938D01232B242B252B79F790E0F3
:1008500080E0109719F0CD010E94EE03A1960FB62B
:10086000F894DEBF0FBECDBFDF91CF911F910F91E6
:10087000BF90AF909F908F900895E95CE1CF85ED98
:100880008093BC008091B0019091B101A091B20120
:10089000B091B3010796A11DB11D23E0B695A795B0
:1008A000979587952A95D1F72091BC0024FD03C028
:1008B0001092AE0108954091B0015091B101609144
:1008C000B2017091B301452B462B472B69F300977A
:1008D000A105B10541F025E32A95F1F70000019744
:1008E000A109B109E1CF8091AF010C9416021F92CA
:1008F0000F920FB60F9211242F933F934F935F9354
:100900006F937F938F939F93AF93BF93EF93FF93D7
:1009100088ED91E00E941601FF91EF91BF91AF9198
:100920009F918F917F916F915F914F913F912F9107
:100930000F900FBE0F901F9018951F920F920FB639
:100940000F9211242F938F939F93EF93FF93E09136
:10095000E801F091E9018081E091EE01F091EF0171
:1009600082FD1BC090818091F1018F5F8F73209178
:10097000F201821741F0E091F101F0E0E852FE4F00
:10098000958F8093F101FF91EF919F918F912F911E
:100990000F900FBE0F901F9018958081F4CF1F927B
:1009A0000F920FB60F9211242F933F938F939F9323
:1009B000AF93BF938091800190918101A0918201BA
:1009C000B091830130917F0123E0230F2D3758F53B
:1009D0000196A11DB11D20937F018093800190930A
:1009E0008101A0938201B093830180918401909151
:1009F0008501A0918601B09187010196A11DB11DCD
:100A00008093840190938501A0938601B093870120
:100A1000BF91AF919F918F913F912F910F900FBEFA
:100A20000F901F90189526E8230F0296A11DB11D67
:100A3000D2CF1F920F920FB60F9211242F933F9394
:100A40004F935F936F937F938F939F93AF93BF93D6
:100A5000EF93FF938091B900887F803609F44AC0F4
:100A6000F0F5883209F4A5C018F5803109F499C071
:100A7000B8F4882309F4F5C0883009F492C0FF91D6
:100A8000EF91BF91AF919F918F917F916F915F9106
:100A90004F913F912F910F900FBE0F901F9018957F
:100AA000883109F486C0803251F78093AC0114C0BC
:100AB000803409F49BC040F48033B9F38833F9F6ED
:100AC0008093AC0185ECAEC0803509F483C08835D5
:100AD00009F494C0883499F60E943F04D0CF883935
:100AE00009F48AC038F5883729F050F4883611F0B7
:100AF000803729F683E08093AE0110927E0155C0C5
:100B0000883809F479C0803919F0803809F0B7CFF6
:100B100080917E01803208F06FC0E0917E0181E01B
:100B20008E0F80937E018091BB00F0E0E25AFE4F71
:100B300080833BC0803B39F0D0F4803A09F477C021
:100B4000883A09F09CCF84E08093AE0110925D0159
:100B500010925C01F0E0E0E0099580915C01811168
:100B60000FC081E080935C0110923C0109C0803C81
:100B700009F4A8CF883C09F4A5CF883B09F07FCFC2
:100B8000E0915D0181E08E0F80935D01F0E0E45C17
:100B9000FE4F80818093BB0090915D0180915C014C
:100BA00029C0809189018093BB0085EC8093BC00B3
:100BB00066CF9091AB018091AA01981758F5E0910A
:100BC000AB0181E08E0F8093AB01F0E0E657FE4F62
:100BD0008081E9CFE091AB0181E08E0F8093AB0182
:100BE0008091BB00F0E0E657FE4F80839091AB010F
:100BF0008091AA019817C8F285E8D8CFE091AB019F
:100C000081E08E0F8093AB018091BB00F0E0E6574E
:100C1000FE4F80838091AD0181115ECF81E0809392
:100C2000880184EA8093BC001092AE0128CF85EC45
:100C30008093BC001092AE0180917E01803230F42E
:100C4000E0917E01F0E0E25AFE4F108260917E0159
:100C500070E08EE591E0F0E0E0E0099510927E0111
:100C60000ECF1092AC0138CFE8EDF1E01382128282
:100C700088EE93E0A0E0B0E084839583A683B783F9
:100C80002AE031E03183208325EC30E0358724876A
:100C900024EC30E03787268720EC30E0318B208B46
:100CA00021EC30E0338B228B22EC30E0358B248B2F
:100CB00026EC30E0378B268B118E128E138E148E1D
:100CC000E5E7F2E01382128284839583A683B783DB
:100CD0008CE191E09183808388E190E00E945F0B3A
:100CE000FC0188E1DF011D928A95E9F780E090E040
:100CF000A0E8BFE380839183A283B38340E050E008
:100D000060E07FE3448355836683778380879187A0
:100D1000A287B38780E090E0A0EAB0E4848795875B
:100D2000A687B787F0938202E093810208957894B2
:100D300084B5826084BD84B5816084BD85B58260E0
:100D400085BD85B5816085BD80916E008160809391
:100D50006E001092810080918100826080938100FA
:100D6000809181008160809381008091800081600A
:100D7000809380008091B10084608093B100809165
:100D8000B00081608093B00080917A00846080938D
:100D90007A0080917A00826080937A0080917A0054
:100DA000816080937A0080917A00806880937A00D5
:100DB0001092C100E091E801F091E90182E08083A6
:100DC000E091E401F091E5011082E091E601F091FB
:100DD000E7018FEC80831092F001E091EC01F0913B
:100DE000ED0186E08083E091EA01F091EB018081E2
:100DF00080618083E091EA01F091EB01808188605D
:100E00008083E091EA01F091EB018081806880832A
:100E1000E091EA01F091EB0180818F7D8083E3EB2B
:100E2000F0E02491EFE9F0E084918823C1F090E0B4
:100E3000880F991FFC01EA57FF4FC591D491FC011F
:100E4000E458FF4FA591B4919FB7F8948881E22FA1
:100E5000E0958E2388838C91E823EC939FBF81E0FB
:100E60008093B40180E48093D6011092B501109272
:100E7000D70160E085E792E00E949E0360E285E78B
:100E800092E00E949E030E94550200E010E070E094
:100E900060E086E00E94D00370E060E088E00E949D
:100EA000D00370E060E08AE00E94D00370E060E070
:100EB0008CE00E94D0030E948700C0918102D091F3
:100EC0008202BC01990F880B990B0E94100A9B01AA
:100ED000AC0160E070E08AEF93E40E94FB0828EA2E
:100EE00032E74CEB57E40E94C50A2FE632E143E8B3
:100EF0005AE30E94C50A2AEE3DE740EB55E40E9402
:100F00006D0920E030E040EE50E40E94FC089B01B7
:100F1000AC016C857D858E859F850E94FB086B01E9
:100F20007C01288939894A895B890E94FB082B0149
:100F30003C01C88AD98AEA8AFB8A2C893D894E8974
:100F40005F89C701B6010E94FC084B015C018C8AD5
:100F50009D8AAE8ABF8A288139814A815B81C70117
:100F6000B6010E94C50A6B017C012C813D814E8136
:100F70005F81C501B4010E94C50A9B01AC01C70194
:100F8000B6010E94FC086B017C01288539854A85E1
:100F90005B85C301B2010E94C50A9B01AC01C70178
:100FA000B6010E94FC086B017C0120E030E040E8C3
:100FB00050EC0E94680987FF76C062E070E08AE02A
:100FC0000E94D0036FE070E08CE00E94D0030E948A
:100FD0008700BC01990F880B990B0E94100A9B0196
:100FE000AC0160E070E08AEF93E40E94FB0828EA1D
:100FF00032E74CEB57E40E94C50A2FE632E143E8A2
:101000005AE30E94C50A2AEE3DE740EB55E40E94F0
:101010006D0920E030E040EE50E40E94FC086B01D6
:101020007C014B015C01AC019B010E94320B8823C7
:1010300009F44DC08AE291E00E94EE0386E391E05C
:101040000E94EE030E94F1014B015C0184ECC82E6A
:1010500089E0D82EE12CF12C0E94F1016819790960
:101060008A099B09683E734081059105A8F321E038
:10107000C21AD108E108F10888EE880E83E0981EB4
:10108000A11CB11CC114D104E104F10429F701151C
:10109000110509F4FCCE0E940201882309F4F7CE61
:1010A0000E940000F4CE20E030E040E850E4C701A8
:1010B000B6010E94C00A18160CF089CF62E070E0F9
:1010C00086E00E94D0036FE070E088E07ECF2601CA
:1010D0003701E89477F82FEF3FEF4FE75FE7C30161
:1010E000B2010E94320B81110DC02FEF3FEF4FE78D
:1010F0005FE7C301B2010E94680918161CF48EE272
:1011000091E09ACF2FEF3FEF4FE75FE4C701B601C1
:101110000E94C00A18161CF482E391E08DCF2FEFD5
:101120003FEF4FE75FECC701B6010E94680987FDFA
:10113000F3CF20E030E0A901C701B6010E946809A1
:1011400087FF0BC06DE288ED91E00E9438014601F7
:101150005701B7FAB094B7F8B0942AE037ED43EAF4
:101160005BE3C501B4010E94FC084B015C010E94D5
:10117000DF096B017C010E940E0A9B01AC01C501D5
:10118000B4010E94FB084B015C014AE0C701B601B3
:101190000E94FB036EE288ED91E00E94380120E09E
:1011A00030E040E251E4C501B4010E94C50A4B01A0
:1011B0005C010E94DF096B01F12CE12C4AE0C701C0
:1011C000B6010E94FB03C701B6010E940E0A9B01F3
:1011D000AC01C501B4010E94FB0820E030E040E210
:1011E00051E40E94C50A0E94DF0990E080E04AE0D5
:1011F0000E94FB0323CF5058BB27AA270E94130944
:101200000C94860A0E94780A38F00E947F0A20F027
:1012100039F49F3F19F426F40C94750A0EF4E09506
:10122000E7FB0C946F0AE92F0E94970A58F3BA174C
:10123000620773078407950720F079F4A6F50C94EC
:10124000B90A0EF4E0950B2EBA2FA02D0B01B901AF
:1012500090010C01CA01A0011124FF27591B99F02C
:10126000593F50F4503E68F11A16F040A22F232F38
:10127000342F4427585FF3CF469537952795A79588
:10128000F0405395C9F77EF41F16BA0B620B730B2F
:10129000840BBAF09150A1F0FF0FBB1F661F771FA0
:1012A000881FC2F70EC0BA0F621F731F841F48F455
:1012B000879577956795B795F7959E3F08F0B0CFDE
:1012C0009395880F08F09927EE0F979587950895C5
:1012D0000E944B0A08F481E008950E9481090C9451
:1012E000860A0E947F0A58F00E94780A40F029F48A
:1012F0005F3F29F00C946F0A51110C94BA0A0C94B8
:10130000750A0E94970A68F39923B1F3552391F364
:10131000951B550BBB27AA2762177307840738F064
:101320009F5F5F4F220F331F441FAA1FA9F335D0C1
:101330000E2E3AF0E0E832D091505040E695001C75
:10134000CAF72BD0FE2F29D0660F771F881FBB1F2F
:10135000261737074807AB07B0E809F0BB0B802D0D
:10136000BF01FF2793585F4F3AF09E3F510578F039
:101370000C946F0A0C94BA0A5F3FE4F3983ED4F3DE
:10138000869577956795B795F7959F5FC9F7880F0D
:10139000911D9695879597F90895E1E0660F771F5F
:1013A000881FBB1F621773078407BA0720F0621BF0
:1013B000730B840BBA0BEE1F88F7E09508950E941B
:1013C0009F0A88F09F5798F0B92F9927B751B0F02E
:1013D000E1F0660F771F881F991F1AF0BA95C9F7B9
:1013E00014C0B13091F00E94B90AB1E008950C9494
:1013F000B90A672F782F8827B85F39F0B93FCCF347
:10140000869577956795B395D9F73EF49095809535
:10141000709561957F4F8F4F9F4F0895E89409C055
:1014200097FB3EF490958095709561957F4F8F4F17
:101430009F4F9923A9F0F92F96E9BB279395F6952D
:10144000879577956795B795F111F8CFFAF4BB0FAB
:1014500011F460FF1BC06F5F7F4F8F4F9F4F16C00F
:10146000882311F096E911C0772321F09EE8872F99
:10147000762F05C0662371F096E8862F70E060E055
:101480002AF09A95660F771F881FDAF7880F9695CE
:10149000879597F90895990F0008550FAA0BE0E872
:1014A000FEEF16161706E807F907C0F01216130626
:1014B000E407F50798F0621B730B840B950B39F466
:1014C0000A2661F0232B242B252B21F408950A26CC
:1014D00009F4A140A6958FEF811D811D089597F90C
:1014E0009F6780E870E060E008959FEF80EC0895CA
:1014F00000240A94161617061806090608950024F3
:101500000A9412161306140605060895092E03946C
:10151000000C11F4882352F0BB0F40F4BF2B11F4E0
:1015200060FF04C06F5F7F4F8F4F9F4F089557FD3F
:101530009058440F551F59F05F3F71F04795880F41
:1015400097FB991F61F09F3F79F0879508951216D8
:1015500013061406551FF2CF4695F1DF08C0161684
:1015600017061806991FF1CF869571056105089435
:101570000895E894BB2766277727CB0197F908954C
:101580000E944B0A08F48FEF08950E94D80A0C9429
:10159000860A0E94780A38F00E947F0A20F095237C
:1015A00011F00C946F0A0C94750A11240C94BA0A69
:1015B0000E94970A70F3959FC1F3950F50E0551F55
:1015C000629FF001729FBB27F00DB11D639FAA2798
:1015D000F00DB11DAA1F649F6627B00DA11D661FE7
:1015E000829F2227B00DA11D621F739FB00DA11D08
:1015F000621F839FA00D611D221F749F3327A00DC2
:10160000611D231F849F600D211D822F762F6A2F5D
:1016100011249F5750409AF0F1F088234AF0EE0FC2
:10162000FF1FBB1F661F771F881F91505040A9F7EF
:101630009E3F510580F00C946F0A0C94BA0A5F3FEC
:10164000E4F3983ED4F3869577956795B795F7952B
:10165000E7959F5FC1F7FE2B880F911D96958795A3
:1016600097F908950E944B0A880B990B0895A1E2FF
:101670001A2EAA1BBB1BFD010DC0AA1FBB1FEE1F0C
:10168000FF1FA217B307E407F50720F0A21BB30B57
:10169000E40BF50B661F771F881F991F1A9469F7D3
:1016A00060957095809590959B01AC01BD01CF012F
:1016B0000895EE0FFF1F0590F491E02D09940F930C
:1016C0001F93CF93DF938230910510F482E090E076
:1016D000E0918502F091860230E020E0B0E0A0E0E9
:1016E000309799F42115310509F44AC0281B390BAC
:1016F00024303105D8F58A819B816115710589F106
:10170000FB0193838283FE0111C0408151810281DC
:10171000138148175907E0F04817590799F41097B3
:1017200061F012960C93129713961C933296CF0188
:10173000DF91CF911F910F9108950093850210932F
:101740008602F4CF2115310551F04217530738F0C6
:10175000A901DB019A01BD01DF01F801C1CFEF0151
:10176000F9CF9093860280938502CDCFFE01E20FE0
:10177000F31F819391932250310939832883D7CF66
:101780002091830230918402232B41F420910201A5
:101790003091030130938402209383022091000151
:1017A000309101012115310541F42DB73EB740912B
:1017B000040150910501241B350BE0918302F09147
:1017C0008402E217F307A0F42E1B3F0B28173907FA
:1017D00078F0AC014E5F5F4F2417350748F04E0F8D
:1017E0005F1F5093840240938302819391939FCF14
:1017F000F0E0E0E09CCFCF93DF930097E9F0FC01AD
:10180000329713821282A0918502B0918602ED0177
:1018100030E020E01097A1F420813181820F931FE6
:1018200020918302309184022817390709F061C0A2
:10183000F0938402E0938302DF91CF910895EA014F
:10184000CE17DF07E8F54A815B819E0141155105FE
:10185000B1F7E901FB83EA8349915991C40FD51F80
:10186000EC17FD0761F4808191810296840F951F2A
:10187000E90199838883828193819B838A83F0E045
:10188000E0E012968D919C9113970097B9F52D91F8
:101890003C911197CD010296820F931F20918302F4
:1018A000309184022817390739F6309751F5109294
:1018B000860210928502B0938402A0938302BCCF6B
:1018C000D383C28340815181840F951FC817D907E4
:1018D00061F44E5F5F4F88819981480F591F518392
:1018E00040838A819B81938382832115310509F08E
:1018F000B0CFF0938602E09385029ECFFD01DC011C
:0C190000C0CF13821282D7CFF894FFCF23
:10190C000000870280000000000038019800C5002C
:10191C008501F600D400E800000000009E0371036E
:10192C00CD0363036A03670364036E616E00696E23
:0A193C0066006F7666000D0A0000D9
:00000001FF
