:020000040000FA
:100000000C94BC000C947F080C9458080C94E400E9
:100010000C94E4000C94E4000C94E4000C94E400D0
:100020000C94E4000C94E4000C94E4000C94E400C0
:100030000C94E4000C94E4000C94E4000C94E400B0
:100040000C940E080C94E4000C94DC070C94B60796
:100050000C94E4000C94E4000C94E4000C94E40090
:100060000C94A6080C94E40007634236B79BD8A70B
:100070001A39685618AEBAAB558C1D3CB7CC5763CD
:10008000BD6DEDFD753EF6177231BF000000803F7B
:1000900008000000BE922449123EABAAAA2ABECD97
:1000A000CCCC4C3E00000080BEABAAAAAA3E000009
:1000B0000000BF000000803F000000000008417801
:1000C000D3BB4387D1133D190E3CC3BD4282AD2B38
:1000D0003E68EC8276BED98FE1A93E4C80EFFFBE30
:1000E00001C4FF7F3F00000000004E414E494E49D1
:1000F0005459494E46CDCCCC3D0AD7233C17B7D1F5
:100100003877CC2B329595E6241FB14F0A0000209A
:10011000410000C84200401C4620BCBE4CCA1B0E19
:100120005AAEC59D7400000000240027002A00007C
:10013000000000250028002B00040404040404042B
:100140000402020202020203030303030301020486
:100150000810204080010204081020010204081049
:100160002000000008000201000003040700000056
:10017000000000000000C10911241FBECFEFD8E02D
:10018000DEBFCDBF22E0A4E6B1E001C01D92AF3CCE
:10019000B207E1F711E0A0E0B1E0EAE7FAE202C05D
:1001A00005900D92A436B107D9F710E0CCEBD0E062
:1001B00004C02197FE010E940214CB3BD107C9F76E
:1001C0000E94240A0C943B150C940000AF92BF923D
:1001D000CF92DF92EF92FF920F931F93CF93DF9313
:1001E0006C017B018B01040F151FEB015E01AE1842
:1001F000BF08C017D10759F06991D601ED91FC9164
:100200000190F081E02DC6010995892B79F7C50190
:10021000DF91CF911F910F91FF90EF90DF90CF90E2
:10022000BF90AF900895FC01538D448D252F30E091
:10023000842F90E0821B930B541710F0CF960895F3
:1002400001970895FC01918D828D981761F0A28D20
:10025000AE0FBF2FB11D5D968C91928D9F5F9F73E6
:10026000928F90E008958FEF9FEF0895FC01918D9C
:10027000828D981731F0828DE80FF11D858D90E009
:1002800008958FEF9FEF0895FC01918D228D892FA6
:1002900090E0805C9F4F821B91098F73992708958E
:1002A0008CE192E00E94440121E0892B09F420E0D6
:1002B000822F0895FC01A48DA80FB92FB11DA35A58
:1002C000BF4F2C91848D90E001968F739927848F76
:1002D000A689B7892C93A089B1898C918370806499
:1002E0008C93938D848D981306C00288F389E02D3A
:1002F00080818F7D80830895EF92FF920F931F93EB
:10030000CF93DF93EC0181E0888F9B8D8C8D9813C8
:100310001AC0E889F989808185FF15C09FB7F894D4
:10032000EE89FF896083E889F98980818370806420
:1003300080839FBF81E090E0DF91CF911F910F916B
:10034000FF90EF900895F62E0B8D10E00F5F1F4F7A
:100350000F731127E02E8C8D8E110CC00FB607FC89
:10036000FACFE889F989808185FFF5CFCE010E9417
:100370005A01F1CFEB8DEC0FFD2FF11DE35AFF4F2A
:10038000F0829FB7F8940B8FEA89FB8980818062A5
:10039000CFCFCF93DF93EC01888D8823B9F0AA8962
:1003A000BB89E889F9898C9185FD03C0808186FD30
:1003B0000DC00FB607FCF7CF8C9185FFF2CF80817F
:1003C00085FFEDCFCE010E945A01E9CFDF91CF9199
:1003D000089590E0FC01EF59FE4F2491FC01E35B8E
:1003E000FE4F3491FC01E75CFE4FE491EE23C9F02F
:1003F000222339F0233001F1A8F4213019F1223001
:1004000029F1F0E0EE0FFF1FE15DFE4FA591B491E1
:100410008FB7F894EC91611126C030953E233C9340
:100420008FBF08952730A9F02830C9F0243049F74C
:10043000809180008F7D03C0809180008F778093B2
:100440008000DFCF84B58F7784BDDBCF84B58F7D0F
:10045000FBCF8091B0008F778093B000D2CF809196
:10046000B0008F7DF9CF3E2BDACFCF93DF9390E0B2
:10047000FC01E35BFE4F2491875C9E4FFC0184915D
:100480008823D1F090E0880F991FFC01EB5DFE4FAF
:10049000A591B491FC01E15DFE4FC591D49161112C
:1004A0000EC09FB7F8948C91E22FE0958E238C9329
:1004B0002881E223E8839FBFDF91CF9108958FB712
:1004C000F894EC91E22BEC938FBFF6CF1F93CF9370
:1004D000DF93182FEB0161E00E943502209739F479
:1004E00060E0812FDF91CF911F910C94E901CF3F04
:1004F000D10511F461E0F5CFE12FF0E0EF59FE4FA7
:10050000E491E33031F140F4E130B1F0E230E1F078
:10051000C038D1057CF7E4CFE73029F1E83059F154
:10052000E430B1F780918000806280938000D093A6
:100530008B00C0938A0004C084B5806884BDC7BDA9
:10054000DF91CF911F91089584B5806284BDC8BDAD
:10055000F7CF80918000806880938000D0938900DD
:10056000C0938800EDCF8091B00080688093B00088
:10057000C093B300E5CF8091B00080628093B0005B
:10058000C093B400DDCF8E50806480937C00809156
:100590007A00806480937A0080917A0086FDFCCF97
:1005A000809178009091790008953FB7F8948091F8
:1005B000B4019091B501A091B601B091B70126B5F3
:1005C000A89B05C02F3F19F00196A11DB11D3FBF8B
:1005D000BA2FA92F982F8827BC01CD01620F711D5A
:1005E000811D911D42E0660F771F881F991F4A9554
:1005F000D1F708952FB7F8946091B0017091B101CF
:100600008091B2019091B3012FBF089508951F9377
:10061000CF93DF93C1E0C0936B01882399F1D09110
:10062000B8001091BA008091BC008A7B8093BC0016
:1006300060E082E10E94E90160E083E10E94E9015B
:100640001092F201C093F1011092CC0161E082E1BD
:100650000E94E90161E083E10E94E9018091B90013
:100660008E7F8093B9008091B9008D7F8093B9000F
:1006700088E48093B80085E48093BC001093BA00AE
:10068000D093B800DF91CF911F910895CF92DF9260
:10069000EF92FF920F931F93CF93DF93D0911B02A2
:1006A00081E0D13208F09CC0C0911A020E94D502AC
:1006B0006B017C018091F20181116CC082E080931A
:1006C000F20181E08093F1018FEF8093F0011092AD
:1006D000EF01D093EE01AAEFB1E0EEECF1E080E0A3
:1006E000D8138DC01092CD018091CD01CC0FC82BB5
:1006F000C093CD018091CC01813009F084C010926B
:10070000CC010E94D5026B017C018091CD018093C8
:10071000BB008091F4019091F501A091F601B09198
:10072000F701892B8A2B8B2BA1F00E94D502009117
:10073000F4011091F5012091F6013091F7016C1947
:100740007D098E099F09061717072807390708F43E
:1007500042C08091BC0083FDD8CF85EC8093BC0063
:100760000E94D5026B017C018091F201823009F474
:100770004CC08091F0018F3F09F469C08091F00175
:10078000803209F466C08091F001803309F463C0BF
:1007900084E026C08091F4019091F501A091F601CA
:1007A000B091F701892B8A2B8B2B09F483CF0E9400
:1007B000D5020091F4011091F5012091F6013091DC
:1007C000F7016C197D098E099F090617170728077D
:1007D000390708F06FCF8091F3010E94070385E08D
:1007E0001092F90110921B021092F801DF91CF9143
:1007F0001F910F91FF90EF90DF90CF9008959D9102
:1008000091938F5F6DCF85EEA9CF8091F401909188
:10081000F501A091F601B091F701892B8A2B8B2B62
:1008200009F4A2CF0E94D5020091F4011091F501C4
:100830002091F6013091F7016C197D098E099F090D
:10084000061717072807390708F08ECFC4CF80E0B6
:10085000C7CF82E0C5CF83E0C3CF20918C01260FA4
:100860003327331F21323105ECF42091F201FC01D2
:1008700090E080E0243069F082E00895A0918C013E
:100880002191AC0144595E4FA40FB52FB11D2C939B
:100890000196861798F380918C01680F60938C0104
:1008A00080E0089581E0089508958FEF9FEF089507
:1008B0008FEF9FEF089580916A0190E09195819567
:1008C00091090895CF92DF92EF92FF920F931F93B9
:1008D000CF93DF937C01CB018A012091F801222381
:1008E00089F0EB016B01C40ED51ECC15DD0569F056
:1008F0006991D701ED91FC910190F081E02DC70144
:100900000995F3CF642F0E942D04C801DF91CF9188
:100910001F910F91FF90EF90DF90CF900895CF93AC
:10092000DF931F92CDB7DEB769832091F8012223B0
:10093000F9F020911B02203258F021E030E0FC0158
:100940003383228390E080E00F90DF91CF91089570
:100950008091F901E82FF0E0E650FE4F99819083F5
:100960008F5F8093F90180931B0281E090E0ECCFD0
:1009700061E0CE0101960E942D04F7CF90E080E067
:100980000895CF93C62F91E09093F80190E490934F
:100990001A021092F90110921B02682F89EB92E063
:1009A0000E948F046C2F89EB92E00E948F0460E01C
:1009B00089EB92E00E948F04CF910C944603AF9292
:1009C000BF92CF92DF92EF92FF920F931F93CF933C
:1009D000DF9380916801909169010196909369017C
:1009E00080936801C2970CF461C0A0900C01B09094
:1009F0000D01C0900E01D0900F01E0901001F09019
:100A000011010091120110911301A0920001B09206
:100A10000101C0920201D0920301E0920401F09220
:100A2000050100930601109307010E94FA02DC0100
:100A3000CB0160930C0190930D01A0930E01B09334
:100A40000F011092100110921101109212011092D8
:100A500013010E94FA02DC019B01AD0160E070E02D
:100A600080E090E00E94ED130E94E81120E030E069
:100A70004AE754E40E9440119B01AC0160E070E041
:100A800088EC91E40E94401120E030E040E752E41D
:100A90000E94C10F609364017093650180936601A9
:100AA000909367011092690110926801DF91CF91D4
:100AB0001F910F91FF90EF90DF90CF90BF90AF907C
:100AC0000895FC0101900020E9F73197AF01481B20
:100AD000590BBC018CE192E00C94E6008F929F923E
:100AE000AF92BF920F931F93CF93DF93CDB7DEB733
:100AF000A1970FB6F894DEBF0FBECDBF19A242304A
:100B000008F44AE08E010F5D1F4F842E912CB12C0A
:100B1000A12CA50194010E94CB13E62FB901CA01B3
:100B2000EA30F4F4E05DD801EE938D01232B242B01
:100B3000252B79F790E080E0109719F0CD010E9405
:100B40006105A1960FB6F894DEBF0FBECDBFDF9151
:100B5000CF911F910F91BF90AF909F908F9008956C
:100B6000E95CE1CF4F925F926F927F928F929F925A
:100B7000AF92BF92CF92DF92EF92FF920F931F93AB
:100B8000CF936B017C01742EAC019B010E949112EA
:100B9000882399F086E491E0CF911F910F91FF9007
:100BA000EF90DF90CF90BF90AF909F908F907F900D
:100BB0006F905F904F900C94610546015701E89447
:100BC000B7F82FEF3FEF4FE75FE7C501B4010E9491
:100BD000911281110DC02FEF3FEF4FE75FE7C50185
:100BE000B4010E945B0F18161CF48AE491E0D4CF84
:100BF0002FEF3FEF4FE75FE4C701B6010E943C12C1
:100C000018161CF48EE491E0C7CF2FEF3FEF4FE7AB
:100C10005FECC701B6010E945B0F87FDF3CF20E0B8
:100C200030E0A901C701B6010E945B0F10E000E0AF
:100C300087FF0AC06DE28CE192E00E947C018C018A
:100C4000F7FAF094F7F8F094C0E060E070E080E02C
:100C50009FE37C1641F020E030E040E251E40E9446
:100C60004011CF5FF6CFA70196010E94D4102B014F
:100C70003C010E94B9114B015C014AE00E946E05E3
:100C80007C01E00EF11ECC23C1F1C501B4010E942C
:100C9000600F9B01AC01C301B2010E94D3104B0154
:100CA0005C016EE28CE192E00E947C01E80EF91E8C
:100CB000C15018F120E030E040E251E4C501B40138
:100CC0000E94C10F2B013C010E94B9114B01B12CB4
:100CD000A12C4AE0C501B4010E946E05E80EF91E80
:100CE000C501B4010E94600F9B01AC01C301B201B8
:100CF0000E94D3104B015C01DBCFC701CF911F9144
:100D00000F91FF90EF90DF90CF90BF90AF909F90AA
:100D10008F907F906F905F904F9008958F929F92E9
:100D2000AF92BF92CF92DF92EF92FF920F931F93F9
:100D3000CF93DF93CDB7DEB7CC50D4400FB6F89445
:100D4000DEBF0FBECDBFCE0101967C018E010F5FCD
:100D50001B4FD82ECF2C0E94FA026093240270936E
:100D6000250280932602909327028CE192E00E9454
:100D7000220197FFB1C00E94FA0280902402909055
:100D80002502A0902602B0902702681979098A09E5
:100D90009B098090200290902102A0902202B090A6
:100DA0002302681579058A059B05F8F28CE192E02B
:100DB0000E94C9014BE050E062E571E08D2D9C2D51
:100DC0000E942D15892B09F041C06091C4017091DA
:100DD000C5018091C6019091C70142E00E94B20511
:100DE0008EE591E00E94610560916401709165015A
:100DF000809166019091670142E00E94B2058EE504
:100E000091E00E9461056091BC017091BD018091EB
:100E1000BE019091BF0142E00E94B20580E691E0E0
:100E20000E946105C45FDB4F0FB6F894DEBF0FBEB2
:100E3000CDBFDF91CF911F910F91FF90EF90DF9089
:100E4000CF90BF90AF909F908F9008956EE571E026
:100E50008D2D9C2D0E94BE0D7801009779F00E9487
:100E6000BA0DF70161937193819391937F016EE5C0
:100E700071E090E080E00E94BE0DEFCFF80180812C
:100E80009181A281B3818093C0019093C101A0930D
:100E9000C201B093C30184819581A681B7818093FB
:100EA000C8019093C901A093CA01B093CB0180857A
:100EB0009185A285B3858093B8019093B901A093E1
:100EC000BA01B093BB01E091C502F091C6028487DC
:100ED0009587A687B787A6CF8A30910509F466CF94
:100EE000F70181937F010E171F0709F034CF5ECF02
:100EF0000E94500181110C948E06089585ED809317
:100F0000BC008091F4019091F501A091F601B0919F
:100F1000F7010796A11DB11D23E0B695A7959795FA
:100F200087952A95D1F72091BC0024FD03C010922B
:100F3000F20108954091F4015091F5016091F6019C
:100F40007091F701452B462B472B69F30097A105BC
:100F5000B10541F025E32A95F1F700000197A109B9
:100F6000B109E1CF8091F3010C9407031F920F9216
:100F70000FB60F9211242F933F934F935F936F936C
:100F80007F938F939F93AF93BF93EF93FF938CE1E6
:100F900092E00E945A01FF91EF91BF91AF919F9112
:100FA0008F917F916F915F914F913F912F910F9012
:100FB0000FBE0F901F9018951F920F920FB60F92B1
:100FC00011242F938F939F93EF93FF93E0912C0223
:100FD000F0912D028081E0913202F091330282FD86
:100FE0001BC09081809135028F5F8F7320913602F4
:100FF000821741F0E0913502F0E0E45EFD4F958FFD
:1010000080933502FF91EF919F918F912F910F90D7
:101010000FBE0F901F9018958081F4CF1F920F92F2
:101020000FB60F9211242F933F938F939F93AF93FB
:10103000BF938091B0019091B101A091B201B091A4
:10104000B3013091AF0123E0230F2D3758F50196FE
:10105000A11DB11D2093AF018093B0019093B10108
:10106000A093B201B093B3018091B4019091B50106
:10107000A091B601B091B7010196A11DB11D809359
:10108000B4019093B501A093B601B093B701BF919D
:10109000AF919F918F913F912F910F900FBE0F9025
:1010A0001F90189526E8230F0296A11DB11DD2CFDF
:1010B0001F920F920FB60F9211242F933F934F93CD
:1010C0005F936F937F938F939F93AF93BF93EF93B0
:1010D000FF93E0910A01F0910B010995FF91EF91C7
:1010E000BF91AF919F918F917F916F915F914F9140
:1010F0003F912F910F900FBE0F901F9018951F9248
:101100000F920FB60F9211242F933F934F935F933B
:101110006F937F938F939F93AF93BF93EF93FF93BF
:10112000E0910801F09109010995FF91EF91BF91BC
:10113000AF919F918F917F916F915F914F913F916F
:101140002F910F900FBE0F901F9018951F920F9226
:101150000FB60F9211242F933F934F935F936F938A
:101160007F938F939F93AF93BF93EF93FF93809160
:10117000B900887F803609F44AC0F0F5883209F456
:10118000A5C018F5803109F499C0B8F4882309F492
:10119000F5C0883009F492C0FF91EF91BF91AF91F3
:1011A0009F918F917F916F915F914F913F912F917F
:1011B0000F900FBE0F901F901895883109F486C0CC
:1011C000803251F78093F00114C0803409F49BC041
:1011D00040F48033B9F38833F9F68093F00185EC5D
:1011E000AEC0803509F483C0883509F494C08834D2
:1011F00099F60E947E07D0CF883909F48AC038F565
:10120000883729F050F4883611F0803729F683E0CA
:101210008093F2011092AE0155C0883809F479C06C
:10122000803919F0803809F0B7CF8091AE01803253
:1012300008F06FC0E091AE0181E08E0F8093AE01A7
:101240008091BB00F0E0E257FE4F80833BC0803BC3
:1012500039F0D0F4803A09F477C0883A09F09CCF8D
:1012600084E08093F20110928D0110928C01F0E0E5
:10127000E0E0099580918C0181110FC081E080939D
:101280008C0110926C0109C0803C09F4A8CF883C05
:1012900009F4A5CF883B09F07FCFE0918D0181E073
:1012A0008E0F80938D01F0E0E459FE4F8081809392
:1012B000BB0090918D0180918C0129C08091CD015E
:1012C0008093BB0085EC8093BC0066CF9091EF01CA
:1012D0008091EE01981758F5E091EF0181E08E0FB3
:1012E0008093EF01F0E0E253FE4F8081E9CFE0917F
:1012F000EF0181E08E0F8093EF018091BB00F0E061
:10130000E253FE4F80839091EF018091EE01981798
:10131000C8F285E8D8CFE091EF0181E08E0F80938D
:10132000EF018091BB00F0E0E253FE4F808380919B
:10133000F10181115ECF81E08093CC0184EA80933A
:10134000BC001092F20128CF85EC8093BC00109273
:10135000F2018091AE01803230F4E091AE01F0E014
:10136000E257FE4F10826091AE0170E08EE891E08E
:10137000F0E0E0E009951092AE010ECF1092F0017E
:1013800038CFECE1F2E01382128288EE93E0A0E025
:10139000B0E084839583A683B78326E231E031836E
:1013A000208325EC30E03587248724EC30E0378734
:1013B000268720EC30E0318B208B21EC30E0338B22
:1013C000228B22EC30E0358B248B26EC30E0378BFF
:1013D000268B118E128E138E148EE9EBF2E013829F
:1013E000128284839583A683B78388E391E09183F7
:1013F000808388E190E00E940814FC0188E1DF010D
:101400001D928A95E9F780E090E0A0E8BFE3808331
:101410009183A283B38340E050E060E07FE34483A4
:1014200055836683778380879187A287B38780E01F
:1014300090E0A0EAB0E484879587A687B787F09309
:10144000C602E093C5020895CF93DF93CDB7DEB710
:101450002D970FB6F894DEBF0FBECDBF789484B53C
:10146000826084BD84B5816084BD85B5826085BDA0
:1014700085B5816085BD80916E00816080936E002E
:101480001092810080918100826080938100809120
:1014900081008160809381008091800081608093D1
:1014A00080008091B10084608093B1008091B00091
:1014B00081608093B00080917A00846080937A008C
:1014C00080917A00826080937A0080917A008160B6
:1014D00080937A0080917A00806880937A001092DD
:1014E000C100E0912C02F0912D0282E08083E09116
:1014F0002802F09129021082E0912A02F0912B0239
:101500008FEC808310923402E0913002F09131022E
:1015100086E08083E0912E02F0912F02808180612D
:101520008083E0912E02F0912F0280818860808379
:10153000E0912E02F0912F02808180688083E091FB
:101540002E02F0912F0280818F7D808360E082E007
:101550000E94350261E085E00E94350261E086E08C
:101560000E94350260E08EE00E94350260E08FE06C
:101570000E9435028FED94E0909309018093080159
:1015800080916900836080936900E89A0E94FA0262
:101590007B018C0120E030E0A9016D83FE828F8306
:1015A000188729873A874B875C8760930C01F092F4
:1015B0000D0180930E0110930F01109210011092F3
:1015C0001101109212011092130180E090E0AAE73D
:1015D000B4E48093C8019093C901A093CA01B09369
:1015E000CB0180E090E0A8ECB1E48093C00190933F
:1015F000C101A093C201B093C301C12CD12C90EAC8
:10160000E92E90E4F92EC092B801D092B901E0928F
:10161000BA01F092BB0160E08FE00E94350281E0E8
:101620008093F80180E480931A021092F9011092DD
:101630001B0260E089EB92E00E948F0460E289EB7C
:1016400092E00E948F040E944603E091C502F0914F
:10165000C602C486D586E686F78621E93DEE42E4D9
:1016600051E46091C8017091C9018091CA019091C3
:10167000CB010E9440110E94B21185E00E946602D7
:101680001092C4011092C5011092C6011092C701B8
:101690000E94FA027B018C0120E030E0A9016D83F9
:1016A000FE828F83188729873A874B875C876093F0
:1016B0001401F092150180931601109317011092F6
:1016C00018011092190110921A0110921B011A822E
:1016D000198209811A810E31110509F463C00E9433
:1016E000FA029B01AC0160E070E080E090E0A09025
:1016F0001401B0901501C0901601D0901701E09030
:101700001801F090190100911A0110911B010E941B
:10171000ED13A1E00E94F613E1F2DCF28EE00E94EC
:10172000C302BC01990F880B990B0E94620F2AE03B
:1017300037EB43E454E40E94D31027E139ED4AE249
:1017400051EC0E9440119B01AC016091C401709169
:10175000C5018091C6019091C7010E94D410609389
:10176000C4017093C5018093C6019093C70129817C
:101770003A812F5F3F4F3A8329830E94FA028B01FF
:101780009C0160931401109315018093160130930E
:101790001701109218011092190110921A0110925B
:1017A0001B0197CF20E030E040EF51E46091C4018D
:1017B0007091C5018091C6019091C7010E944011AE
:1017C0009B01AC012093C4013093C5014093C60135
:1017D0005093C701C090C001D090C101E090C201F8
:1017E000F090C301C701B6010E94D310162F7D8768
:1017F0008D83092F462E572E682E792E812C912C01
:10180000540120E030E0A901B201C3010E943C1262
:1018100087FD13C09201A301C501B4010E94D41039
:101820004B015C0120E030E040E85FE3B201C3011E
:101830000E94D3102B013C01E4CF20E030E040E8CF
:1018400050E4C701B6010E9441122B013C0120E087
:1018500030E040E450E4C701B6010E9441126983C0
:101860007A838B839C8326E23DE145EE5AEBC301EC
:10187000B2010E94C10F2B013C0120E33CE446E68B
:101880005EE369817A818B819C810E94C10F9B01FB
:10189000AC01C301B2010E94D4102B013C01A7018D
:1018A0009601C701B6010E94C10F2FE135E84FE252
:1018B00051E40E94C10F9B01AC01C301B2010E941F
:1018C000D3102B013C0126E636E644E753E4C7017A
:1018D000B6010E94C10F9B01AC01C301B2010E947D
:1018E000D41020E030E541E055E40E94D3106B01B4
:1018F0007C0120E030E040E751E4612F7D858D815F
:10190000902F0E94C10F2B013C0120E030E040EA03
:1019100050E4C501B4010E94C10F9B01AC01C30199
:10192000B2010E94D4109B01AC01C701B6010E9414
:10193000D4106B017C0120E030E0A9010E945B0F14
:1019400087FDF9C020E030E04FE753E4C701B6015E
:101950000E943C1218160CF4F2C0C701B6010E9496
:10196000B21186E00E94660270E060E086E00E94AC
:10197000C10470E060E088E00E94C10470E060E0B3
:101980008AE00E94C10470E060E08CE00E94C10423
:101990008FE00E94C302E090C502F090C602FA8276
:1019A000E982BC01990F880B990B0E94620F9B0181
:1019B000AC0160E070E08AEF93E40E94D31028EA63
:1019C00032E74CEB57E40E94C10F2FE632E143E8C7
:1019D0005AE30E94C10F2AEE3DE740EB55E40E9416
:1019E000401120E030E040EE50E40E94D4109B0112
:1019F000AC01F70164857585868597850E94D310B3
:101A00006B017C01E981FA812089318942895389FE
:101A10000E94D3102B013C01E981FA81C08AD18A4E
:101A2000E28AF38A2489358946895789C701B60134
:101A30000E94D4104B015C01E981FA81848A958A65
:101A4000A68AB78A2081318142815381C701B601BC
:101A50000E94C10F6B017C01E981FA8124813581EB
:101A600046815781C501B4010E94C10F9B01AC01A1
:101A7000C701B6010E94D4106B017C01E981FA8193
:101A80002085318542855385C301B2010E94C10F73
:101A90009B01AC01C701B6010E94D4106B017C010F
:101AA00020E030E040E850EC0E945B0F87FF4EC022
:101AB00062E070E08AE00E94C1046FE070E08CE0B8
:101AC0000E94C1048FE00E94C302BC01990F880BE1
:101AD000990B0E94620F9B01AC0160E070E08AEFFD
:101AE00093E40E94D31028EA32E74CEB57E40E94BB
:101AF000C10F2FE632E143E85AE30E94C10F2AEEFC
:101B00003DE740EB55E40E94401120E030E040EE1C
:101B100050E40E94D4106093BC017093BD01809387
:101B2000BE019093BF010E945001882309F495CD16
:101B30000E948E0692CDC12CD12C76010ECFC12CE5
:101B4000D12C8FE7E82E83E4F82E07CF20E030E099
:101B500040E850E4C701B6010E943C1218160CF090
:101B6000B1CF62E070E086E00E94C1046FE070E0F7
:101B700088E0A6CF662777270C94EA0D47EC52E061
:101B80000E94C30D0895FA01A191B081009719F444
:101B90001097E1F0CD01DC01CD010D90002011F492
:101BA000C00113C0FB012191222319F02015D9F7A0
:101BB000F3CFFB012191201519F41E92119606C056
:101BC0002223C1F70D900020A1F7D001FA01A193C3
:101BD000B0830895B0E0A0E0E0EFFDE00C94931036
:101BE0005C017B016115710519F0DB018D939C93FC
:101BF00085010F5F1F4FF501D0818D2F90E00E946E
:101C00003A0F6C01892BB9F5DD32B9F50F5F1F4F23
:101C1000D5011196DC91C1E05801F1E0AF1AB1088D
:101C200043E050E062EF70E0C5010E94430F892B52
:101C300069F5680182E0C80ED11C45E050E06DEE08
:101C400070E0C6010E94430F892B21F4680197E0E0
:101C5000C90ED11CE114F10419F0D701CD92DC9228
:101C600060E070E080E89FEFC111FFC060E070E0CD
:101C700080E89FE7FAC05801BBCFDB3229F4850129
:101C80000E5F1F4FF501D181C0E0C6CF43E050E0A9
:101C90006AEE70E0C5010E94430F892BE9F0F8015C
:101CA00010E000E020E030E0A9015F01B0ED8B2EF4
:101CB0008D0E89E08815C8F19C2E689491F88C2FC0
:101CC0008870C2FF16C0811102C00F5F1F4F31968E
:101CD000D501DC91C92DE9CFE114F10429F00E5FA3
:101CE0001F4FF7011183008360E070E080EC9FE7F5
:101CF000BCC0882311F001501109A5E0B0E00E949A
:101D000082109B01AC01220F331F441F551F280D69
:101D1000311D411D511D283999E93907490799E1BC
:101D20005907A8F2C6609C2ED2CFAEEF8A1206C029
:101D3000C3FD3CC09C2E689493F8C9CFDF7DD53499
:101D4000A9F580818D3239F4C061DF01129681815D
:101D500062E070E006C0DF018B32C1F3119661E0F2
:101D600070E080535D01A61AB70A8A30F8F4E0E803
:101D7000CE16ECE0DE065CF4B601660F771F660F48
:101D8000771FC60ED71ECC0CDD1CC80ED11C5D0102
:101D9000FFEFAF1ABF0A8C9180538A30A8F1C4FFBD
:101DA00003C0D194C194D1080C0D1D1DC1FF09C001
:101DB000E114F10431F081E0A81AB108D701AD9225
:101DC000BC92CA01B9010E94600FC370C33009F40C
:101DD00090584B015C0120E030E0A9010E945B0FAC
:101DE000882309F440C0C1E2D1E017FF05C0119576
:101DF00001951109C9E0D1E06E01B8E1CB1AD10813
:101E000080E2E82EF12C0FC0D501B1CFFE01259163
:101E10003591459154910E191F09C501B4010E94D5
:101E2000C10F4B015C01D501C4010E151F0574F7EC
:101E30002497F594E794CC16DD06A9F78A2F880F2E
:101E40008B2F881F8F3F49F020E030E0A901C501AA
:101E5000B4010E945B0F811106C082E290E0909372
:101E6000CA028093C902C501B401CDB7DEB7ECE068
:101E70000C94AF1091110C942E10803219F08950EF
:101E80008550C8F70895FB01DC014150504088F0AF
:101E90008D9181341CF08B350CF4805E659161343A
:101EA0001CF06B350CF4605E861B611171F3990BAD
:101EB0000895881BFCCF0E949D0F08F481E00895CF
:101EC000E89409C097FB3EF49095809570956195D4
:101ED0007F4F8F4F9F4F9923A9F0F92F96E9BB278A
:101EE0009395F695879577956795B795F111F8CF06
:101EF000FAF4BB0F11F460FF1BC06F5F7F4F8F4F71
:101F00009F4F16C0882311F096E911C0772321F066
:101F10009EE8872F762F05C0662371F096E8862FFE
:101F200070E060E02AF09A95660F771F881FDAF755
:101F3000880F9695879597F90895990F0008550F82
:101F4000AA0BE0E8FEEF16161706E807F907C0F03F
:101F500012161306E407F50798F0621B730B840B47
:101F6000950B39F40A2661F0232B242B252B21F421
:101F700008950A2609F4A140A6958FEF811D811DC1
:101F800008950E94D40F0C9448100E943A1038F023
:101F90000E94411020F0952311F00C9431100C9404
:101FA000371011240C947C100E94591070F3959FE7
:101FB000C1F3950F50E0551F629FF001729FBB2740
:101FC000F00DB11D639FAA27F00DB11DAA1F649FDC
:101FD0006627B00DA11D661F829F2227B00DA11D8F
:101FE000621F739FB00DA11D621F839FA00D611D15
:101FF000221F749F3327A00D611D231F849F600D36
:10200000211D822F762F6A2F11249F5750409AF05E
:10201000F1F088234AF0EE0FFF1FBB1F661F771FEA
:10202000881F91505040A9F79E3F510580F00C94B5
:1020300031100C947C105F3FE4F3983ED4F3869506
:1020400077956795B795F795E7959F5FC1F7FE2B55
:10205000880F911D9695879597F908959927882758
:10206000089597F99F6780E870E060E008959FEF1A
:1020700080EC089500240A9416161706180609061F
:10208000089500240A9412161306140605060895EE
:10209000092E0394000C11F4882352F0BB0F40F476
:1020A000BF2B11F460FF04C06F5F7F4F8F4F9F4FB6
:1020B000089557FD9058440F551F59F05F3F71F038
:1020C0004795880F97FB991F61F09F3F79F087959F
:1020D0000895121613061406551FF2CF4695F1DF28
:1020E00008C0161617061806991FF1CF86957105B8
:1020F000610508940895E894BB2766277727CB01EC
:1021000097F908950E94C410A59F900DB49F900D5B
:10211000A49F800D911D112408952F923F924F92FC
:102120005F926F927F928F929F92AF92BF92CF9267
:10213000DF92EF92FF920F931F93CF93DF93CDB770
:10214000DEB7CA1BDB0B0FB6F894DEBF0FBECDBFE8
:1021500009942A88398848885F846E847D848C84B9
:102160009B84AA84B984C884DF80EE80FD800C81C2
:102170001B81AA81B981CE0FD11D0FB6F894DEBFA5
:102180000FBECDBFED010895A29FB001B39FC00166
:10219000A39F700D811D1124911DB29F700D811D93
:1021A0001124911D08955058BB27AA270E94EB10B7
:1021B0000C9448100E943A1038F00E94411020F010
:1021C00039F49F3F19F426F40C9437100EF4E0957F
:1021D000E7FB0C943110E92F0E94591058F3BA17FD
:1021E000620773078407950720F079F4A6F50C942D
:1021F0007B100EF4E0950B2EBA2FA02D0B01B90128
:1022000090010C01CA01A0011124FF27591B99F06C
:10221000593F50F4503E68F11A16F040A22F232F78
:10222000342F4427585FF3CF469537952795A795C8
:10223000F0405395C9F77EF41F16BA0B620B730B6F
:10224000840BBAF09150A1F0FF0FBB1F661F771FE0
:10225000881FC2F70EC0BA0F621F731F841F48F495
:10226000879577956795B795F7959E3F08F0B0CF1E
:102270009395880F08F09927EE0F97958795089505
:102280000E9454110C9448100E94411058F00E9472
:102290003A1040F029F45F3F29F00C9431105111AD
:1022A0000C947C100C9437100E94591068F39923F9
:1022B000B1F3552391F3951B550BBB27AA27621742
:1022C0007307840738F09F5F5F4F220F331F441F4F
:1022D000AA1FA9F335D00E2E3AF0E0E832D0915083
:1022E0005040E695001CCAF72BD0FE2F29D0660F70
:1022F000771F881FBB1F261737074807AB07B0E8B3
:1023000009F0BB0B802DBF01FF2793585F4F3AF0B8
:102310009E3F510578F00C9431100C947C105F3F77
:10232000E4F3983ED4F3869577956795B795F7953E
:102330009F5FC9F7880F911D9695879597F9089526
:10234000E1E0660F771F881FBB1F621773078407C2
:10235000BA0720F0621B730B840BBA0BEE1F88F7D1
:10236000E09508950E94B9116894B1110C947C1005
:1023700008950E94611088F09F5798F0B92F99270F
:10238000B751B0F0E1F0660F771F881F991F1AF060
:10239000BA95C9F714C0B13091F00E947B10B1E03A
:1023A00008950C947B10672F782F8827B85F39F039
:1023B000B93FCCF3869577956795B395D9F73EF4F9
:1023C00090958095709561957F4F8F4F9F4F0895A1
:1023D00097FB16F40E942C120C94EF11E894F92F3D
:1023E00096EBFF2381F0121613061406440B939507
:1023F000F69587957795679557954040FF23B9F7F0
:102400001BC099270895882351F49850D2F7872B41
:10241000762F652F542F432F322F20E0B1F3121661
:1024200013061406440B88233AF09A95440F551F5F
:10243000661F771F881FCAF755234AF4440F551F9C
:1024400011F460FF04C06F5F7F4F8F4F9F4F880F65
:102450009695879597F908959095809570956095D4
:1024600050954095309521953F4F4F4F5F4F6F4F9F
:102470007F4F8F4F9F4F08950E949D0F08F48FEF5D
:102480000895FA01EE0FFF1F309621053105A1F1E5
:102490006115710561F48038BFE39B0749F16894C9
:1024A0009038810561F08038BFEF9B0741F0992398
:1024B0004AF5FF3FE1053105210519F1E89408943B
:1024C000E795D901AA2329F4AB2FBE2FF85FD0F3EB
:1024D00010C0FF5F70F4A695E0F7F73950F019F0DF
:1024E000FF3A38F49F779F930DD00F9007FC9058D8
:1024F000089546F00C94371060E070E080E89FE3A8
:1025000008954FE79F775F934F933F932F930E94D8
:1025100041132F913F914F915F910E94C10F0C94F5
:102520009E120E949D0F880B990B089529F416F0B6
:102530000C9431100C947B100C9437100E94611095
:10254000A8F39638A0F707F80F92E8942BE33AEA3D
:1025500048EB5FE70E94D70F0F920F920F924DB793
:102560005EB70F920E948913E8E6F0E00E94D01255
:102570004F915F91EF91FF91E595EE1FFF1F49F09D
:10258000FE57E0684427EE0F441FFA95E1F74195A6
:10259000550B0E9403130F9007FE0C94F712089539
:1025A000DF93CF931F930F93FF92EF92DF927B0104
:1025B0008C01689406C0DA2EEF010E94D40FFE0150
:1025C000E894A5912591359145915591A6F3EF0198
:1025D0000E94EB10FE019701A801DA9469F7DF90E1
:1025E000EF90FF900F911F91CF91DF9108959B0184
:1025F000AC0160E070E080E89FE30C9440110C9423
:1026000031100C94BD130E946110D8F39923C9F3C3
:10261000940F511DA3F39150504094F059F088232A
:1026200032F0660F771F881F91505040C1F79E3FD0
:1026300051052CF7880F911D9695879597F9089568
:102640005F3FACF0983E9CF0BB27869577956795E9
:10265000B79508F4B1609395C1F7BB0F58F711F423
:1026600060FFE8CF6F5F7F4F8F4F9F4FE3CF0C949A
:102670007C1016F00C94BD130C94371068940C94D5
:1026800031100E946110A8F39923C1F3AEF3DF93D8
:10269000CF931F930F93FF92C92FDD2788232AF032
:1026A0002197660F771F881FDAF720E030E040E8B7
:1026B0005FEB9FE3883920F0803E38F021968F77DA
:1026C0000E94D410E0E9F0E004C00E94D410EDEBC9
:1026D000F0E00E94D0128B01BE01EC01FB2E6F577F
:1026E00071097595771F880B990B0E94620F28E17D
:1026F00032E741E35FE30E94D40FAF2D9801AE01B2
:10270000FF900F911F91CF91DF910E94EB100C94DD
:102710004810FA01DC01AA0FBB1F9B01AC01BF5797
:1027200028F4222733274427507820C0B75190F44B
:10273000AB2F0024469537952795011CA395D2F31E
:10274000002071F0220F331F441FB395DAF30ED02F
:102750000C94D31061307105A0E88A07B94630F4B3
:102760009B01AC016627772788279078309621F067
:10277000208331834283538308959F3F31F09150EA
:1027800020F4879577956795B795880F911D969555
:10279000879597F90895A1E21A2EAA1BBB1BFD018C
:1027A0000DC0AA1FBB1FEE1FFF1FA217B307E40730
:1027B000F50720F0A21BB30BE40BF50B661F771F88
:1027C000881F991F1A9469F7609570958095909568
:1027D0009B01AC01BD01CF0108952A193B094C09A9
:1027E0005D096E097F09800B910B08950024A7FDF8
:1027F00000942A17300540055005600570058005D6
:1028000090050895EE0FFF1F0590F491E02D0994B7
:102810000F931F93CF93DF938230910510F482E0E2
:1028200090E0E091CD02F091CE0230E020E0B0E007
:10283000A0E0309799F42115310509F44AC0281B0E
:10284000390B24303105D8F58A819B8161157105DA
:1028500089F1FB0193838283FE0111C04081518184
:102860000281138148175907E0F04817590799F476
:10287000109761F012960C93129713961C93329650
:10288000CF01DF91CF911F910F9108950093CD0259
:102890001093CE02F4CF2115310551F042175307A2
:1028A00038F0A901DB019A01BD01DF01F801C1CFB8
:1028B000EF01F9CF9093CE028093CD02CDCFFE01F0
:1028C000E20FF31F819391932250310939832883BA
:1028D000D7CF2091CB023091CC02232B41F4209111
:1028E0001E0130911F013093CC022093CB02209126
:1028F0001C0130911D012115310541F42DB73EB762
:102900004091200150912101241B350BE091CB0215
:10291000F091CC02E217F307A0F42E1B3F0B28170F
:10292000390778F0AC014E5F5F4F2417350748F048
:102930004E0F5F1F5093CC024093CB028193919333
:102940009FCFF0E0E0E09CCFCF93DF930097E9F0DA
:10295000FC01329713821282A091CD02B091CE0277
:10296000ED0130E020E01097A1F420813181820F49
:10297000931F2091CB023091CC022817390709F020
:1029800061C0F093CC02E093CB02DF91CF91089528
:10299000EA01CE17DF07E8F54A815B819E01411508
:1029A0005105B1F7E901FB83EA8349915991C40FBD
:1029B000D51FEC17FD0761F4808191810296840F89
:1029C000951FE90199838883828193819B838A8300
:1029D000F0E0E0E012968D919C9113970097B9F585
:1029E0002D913C911197CD010296820F931F20915A
:1029F000CB023091CC022817390739F6309751F5C0
:102A00001092CE021092CD02B093CC02A093CB02D2
:102A1000BCCFD383C28340815181840F951FC817D7
:102A2000D90761F44E5F5F4F88819981480F591F24
:102A3000518340838A819B81938382832115310551
:102A400009F0B0CFF093CE02E093CD029ECFFD010E
:102A5000DC01C0CF13821282D7CFFB01DC014150D1
:102A6000504030F08D910190801919F40020B9F791
:102A7000881B990B0895F894FFCFFFFFFFFFFFFF1E
:102A8000FFFF06030603FFFFFFFFFFFFFFFFFFFF40
:102A9000FFFFFFFFFFFF0000CF02800000000000EB
:102AA0007C01E6001301C901440122013601000046
:102AB00000008F046204BE0454045B0458045504EF
:102AC0006E616E00696E66006F76660067657420E1
:0E2AD00063757272656E740020000D0A0000BE
:107E0000112484B714BE81FFF0D085E080938100F7
:107E100082E08093C00088E18093C10086E0809377
:107E2000C20080E18093C4008EE0C9D0259A86E02C
:107E300020E33CEF91E0309385002093840096BBD3
:107E4000B09BFECF1D9AA8958150A9F7CC24DD24C4
:107E500088248394B5E0AB2EA1E19A2EF3E0BF2EE7
:107E6000A2D0813461F49FD0082FAFD0023811F036
:107E7000013811F484E001C083E08DD089C08234E0
:107E800011F484E103C0853419F485E0A6D080C0E4
:107E9000853579F488D0E82EFF2485D0082F10E0AE
:107EA000102F00270E291F29000F111F8ED06801E7
:107EB0006FC0863521F484E090D080E0DECF843638
:107EC00009F040C070D06FD0082F6DD080E0C81688
:107ED00080E7D80618F4F601B7BEE895C0E0D1E017
:107EE00062D089930C17E1F7F0E0CF16F0E7DF06D8
:107EF00018F0F601B7BEE89568D007B600FCFDCFD4
:107F0000A601A0E0B1E02C9130E011968C91119780
:107F100090E0982F8827822B932B1296FA010C0160
:107F200087BEE89511244E5F5F4FF1E0A038BF0790
:107F300051F7F601A7BEE89507B600FCFDCF97BE46
:107F4000E89526C08437B1F42ED02DD0F82E2BD052
:107F50003CD0F601EF2C8F010F5F1F4F84911BD097
:107F6000EA94F801C1F70894C11CD11CFA94CF0C13
:107F7000D11C0EC0853739F428D08EE10CD085E9AC
:107F80000AD08FE07ACF813511F488E018D01DD067
:107F900080E101D065CF982F8091C00085FFFCCF94
:107FA0009093C60008958091C00087FFFCCF809118
:107FB000C00084FD01C0A8958091C6000895E0E648
:107FC000F0E098E1908380830895EDDF803219F02E
:107FD00088E0F5DFFFCF84E1DECF1F93182FE3DFCA
:107FE0001150E9F7F2DF1F91089580E0E8DFEE27F6
:047FF000FF270994CA
:027FFE00040479
:00000001FF
