:100000000C94BC000C9420060C94F9050C94E400AC
:100010000C94E4000C94E4000C94E4000C94E400D0
:100020000C94E4000C94E4000C94E4000C94E400C0
:100030000C94E4000C94E4000C94E4000C94E400B0
:100040000C94AF050C94E4000C947D050C945705BA
:100050000C94E4000C94E4000C94E4000C94E40090
:100060000C94E4000C94E40007634236B79BD8A7D5
:100070001A39685618AEBAAB558C1D3CB7CC5763CD
:10008000BD6DEDFD753EF6177231BF000000803F7B
:1000900008000000BE922449123EABAAAA2ABECD97
:1000A000CCCC4C3E00000080BEABAAAAAA3E000009
:1000B0000000BF000000803F000000000008417801
:1000C000D3BB4387D1133D190E3CC3BD4282AD2B38
:1000D0003E68EC8276BED98FE1A93E4C80EFFFBE30
:1000E00001C4FF7F3F00000000004E414E494E49D1
:1000F0005459494E46CDCCCC3D0AD7233C17B7D1F5
:100100003877CC2B329595E6241FB14F0A0000209A
:10011000410000C84200401C4620BCBE4CCA1B0E19
:100120005AAEC59D7400000000240027002A00007C
:10013000000000250028002B00040404040404042B
:100140000402020202020203030303030301020486
:100150000810204080010204081020010204081049
:100160002000000008000201000003040700000056
:10017000000000000000C70811241FBECFEFD8E028
:10018000DEBFCDBF22E0ACE4B1E001C01D92A830DB
:10019000B207E1F711E0A0E0B1E0E4EAFEE102C05D
:1001A00005900D92AC34B107D9F710E0CCEBD0E05C
:1001B00004C02197FE010E943C0FCB3BD107C9F739
:1001C0000E9447060C94500F0C940000AF92BF920F
:1001D000CF92DF92EF92FF920F931F93CF93DF9313
:1001E0006C017B018B01040F151FEB015E01AE1842
:1001F000BF08C017D10759F06991D601ED91FC9164
:100200000190F081E02DC6010995892B79F7C50190
:10021000DF91CF911F910F91FF90EF90DF90CF90E2
:10022000BF90AF900895FC01538D448D252F30E091
:10023000842F90E0821B930B541710F0CF960895F3
:1002400001970895FC01918D828D981761F0A28D20
:10025000AE0FBF2FB11D5D968C91928D9F5F9F73E6
:10026000928F90E008958FEF9FEF0895FC01918D9C
:10027000828D981731F0828DE80FF11D858D90E009
:1002800008958FEF9FEF0895FC01918D228D892FA6
:1002900090E0805C9F4F821B91098F73992708958E
:1002A00087E691E00E94440121E0892B09F420E0D7
:1002B000822F0895FC01A48DA80FB92FB11DA35A58
:1002C000BF4F2C91848D90E001968F739927848F76
:1002D000A689B7892C93A089B1898C918370806499
:1002E0008C93938D848D981306C00288F389E02D3A
:1002F00080818F7D80830895EF92FF920F931F93EB
:10030000CF93DF93EC0181E0888F9B8D8C8D9813C8
:100310001AC0E889F989808185FF15C09FB7F894D4
:10032000EE89FF896083E889F98980818370806420
:1003300080839FBF81E090E0DF91CF911F910F916B
:10034000FF90EF900895F62E0B8D10E00F5F1F4F7A
:100350000F731127E02E8C8D8E110CC00FB607FC89
:10036000FACFE889F989808185FFF5CFCE010E9417
:100370005A01F1CFEB8DEC0FFD2FF11DE35AFF4F2A
:10038000F0829FB7F8940B8FEA89FB8980818062A5
:10039000CFCFCF93DF93EC01888D8823B9F0AA8962
:1003A000BB89E889F9898C9185FD03C0808186FD30
:1003B0000DC00FB607FCF7CF8C9185FFF2CF80817F
:1003C00085FFEDCFCE010E945A01E9CFDF91CF9199
:1003D000089590E0FC01EF59FE4F2491FC01E35B8E
:1003E000FE4F3491FC01E75CFE4FE491EE23C9F02F
:1003F000222339F0233001F1A8F4213019F1223001
:1004000029F1F0E0EE0FFF1FE15DFE4FA591B491E1
:100410008FB7F894EC91611126C030953E233C9340
:100420008FBF08952730A9F02830C9F0243049F74C
:10043000809180008F7D03C0809180008F778093B2
:100440008000DFCF84B58F7784BDDBCF84B58F7D0F
:10045000FBCF8091B0008F778093B000D2CF809196
:10046000B0008F7DF9CF3E2BDACFCF93DF9390E0B2
:10047000FC01E35BFE4F2491875C9E4FFC0184915D
:100480008823D1F090E0880F991FFC01EB5DFE4FAF
:10049000A591B491FC01E15DFE4FC591D49161112C
:1004A0000EC09FB7F8948C91E22FE0958E238C9329
:1004B0002881E223E8839FBFDF91CF9108958FB712
:1004C000F894EC91E22BEC938FBFF6CF1F93CF9370
:1004D000DF93182FEB0161E00E943502209739F479
:1004E00060E0812FDF91CF911F910C94E901CF3F04
:1004F000D10511F461E0F5CFE12FF0E0EF59FE4FA7
:10050000E491E33031F140F4E130B1F0E230E1F078
:10051000C038D1057CF7E4CFE73029F1E83059F154
:10052000E430B1F780918000806280938000D093A6
:100530008B00C0938A0004C084B5806884BDC7BDA9
:10054000DF91CF911F91089584B5806284BDC8BDAD
:10055000F7CF80918000806880938000D0938900DD
:10056000C0938800EDCF8091B00080688093B00088
:10057000C093B300E5CF8091B00080628093B0005B
:10058000C093B400DDCF2FB7F894609157017091FC
:1005900058018091590190915A012FBF08950895F3
:1005A000AF92BF92CF92DF92EF92FF920F931F9381
:1005B000CF93DF93809150019091510101969093D8
:1005C000510180935001C2970CF461C0A0900C01BE
:1005D000B0900D01C0900E01D0900F01E09010017D
:1005E000F09011010091120110911301A0920001ED
:1005F000B0920101C0920201D0920301E092040185
:10060000F092050100930601109307010E94C302B6
:10061000DC01CB0160930C0190930D01A0930E01BE
:10062000B0930F011092100110921101109212015B
:10063000109213010E94C302DC019B01AD0160E036
:1006400070E080E090E00E94270F0E94220D20E0E1
:1006500030E04AE754E40E947A0C9B01AC0160E070
:1006600070E088EC91E40E947A0C20E030E040E7F2
:1006700052E40E94FB0A60934C0170934D018093F9
:100680004E0190934F011092510110925001DF9151
:10069000CF911F910F91FF90EF90DF90CF90BF907F
:1006A000AF900895FC0101900020E9F73197AF0168
:1006B000481B590BBC0187E691E00C94E6008F9231
:1006C0009F92AF92BF920F931F93CF93DF93CDB7BB
:1006D000DEB7A1970FB6F894DEBF0FBECDBF19A24B
:1006E000423008F44AE08E010F5D1F4F842E912C9A
:1006F000B12CA12CA50194010E94050FE62FB90190
:10070000CA01EA30F4F4E05DD801EE938D01232BA9
:10071000242B252B79F790E080E0109719F0CD017C
:100720000E945203A1960FB6F894DEBF0FBECDBF54
:10073000DF91CF911F910F91BF90AF909F908F90BD
:100740000895E95CE1CF4F925F926F927F928F9212
:100750009F92AF92BF92CF92DF92EF92FF920F9350
:100760001F93CF936B017C01742EAC019B010E94FF
:10077000CB0D882399F08EE291E0CF911F910F91DC
:10078000FF90EF90DF90CF90BF90AF909F908F90B1
:100790007F906F905F904F900C94520346015701E9
:1007A000E894B7F82FEF3FEF4FE75FE7C501B401DB
:1007B0000E94CB0D81110DC02FEF3FEF4FE75FE798
:1007C000C501B4010E94950A18161CF482E391E059
:1007D000D4CF2FEF3FEF4FE75FE4C701B6010E9490
:1007E000760D18161CF486E391E0C7CF2FEF3FEF8C
:1007F0004FE75FECC701B6010E94950A87FDF3CF72
:1008000020E030E0A901C701B6010E94950A10E07E
:1008100000E087FF0AC06DE287E691E00E947C015C
:100820008C01F7FAF094F7F8F094C0E060E070E023
:1008300080E09FE37C1641F020E030E040E251E4AC
:100840000E947A0CCF5FF6CFA70196010E940E0C92
:100850002B013C010E94F30C4B015C014AE00E9419
:100860005F037C01E00EF11ECC23C1F1C501B40190
:100870000E949A0A9B01AC01C301B2010E940D0CB7
:100880004B015C016EE287E691E00E947C01E80E7C
:10089000F91EC15018F120E030E040E251E4C501FA
:1008A000B4010E94FB0A2B013C010E94F30C4B0196
:1008B000B12CA12C4AE0C501B4010E945F03E80EEF
:1008C000F91EC501B4010E949A0A9B01AC01C30143
:1008D000B2010E940D0C4B015C01DBCFC701CF912F
:1008E0001F910F91FF90EF90DF90CF90BF90AF904E
:1008F0009F908F907F906F905F904F9008958F9210
:100900009F92AF92BF92CF92DF92EF92FF920F939E
:100910001F93CF93DF93CDB7DEB7CC50D4400FB643
:10092000F894DEBF0FBECDBF8E010F5F1F4F7E015B
:100930008FEFE81A8BEFF80AD02EC12E0E94C30267
:1009400060936F01709370018093710190937201B5
:1009500087E691E00E94220197FF97C00E94C302A0
:1009600080906F0190907001A0907101B090720121
:10097000681979098A099B0980906B0190906C0134
:10098000A0906D01B0906E01681579058A059B05F0
:10099000F8F287E691E00E94C9014BE050E06AE37B
:1009A00071E08D2D9C2D0E94420F892BE1F5609105
:1009B0005F0170916001809161019091620142E05C
:1009C0000E94A30386E491E00E94520360914C01CF
:1009D00070914D0180914E0190914F0142E00E9433
:1009E000A30386E491E00E94520342E060E070E0DD
:1009F000CB010E94A30388E491E00E945203C45FEC
:100A0000DB4F0FB6F894DEBF0FBECDBFDF91CF91A5
:100A10001F910F91FF90EF90DF90CF90BF90AF901C
:100A20009F908F90089566E471E08D2D9C2D0E941B
:100A3000F8088701009779F00E94F408F8016193A3
:100A40007193819391938F0166E471E090E080E06F
:100A50000E94F808EFCFF70180819181A281B381D4
:100A600080935B0190935C01A0935D01B0935E0164
:100A700084819581A681B7818093630190936401FD
:100A8000A0936501B0936601BACF8A30910509F44D
:100A900080CFF80181938F01EE16FF0609F04ECF4B
:100AA00078CF0E94500181110C947F0408951F9209
:100AB0000F920FB60F9211242F933F934F935F9392
:100AC0006F937F938F939F93AF93BF93EF93FF9316
:100AD00087E691E00E945A01FF91EF91BF91AF919B
:100AE0009F918F917F916F915F914F913F912F9146
:100AF0000F900FBE0F901F9018951F920F920FB678
:100B00000F9211242F938F939F93EF93FF93E09174
:100B10007701F09178018081E0917D01F0917E0173
:100B200082FD1BC09081809180018F5F8F73209127
:100B30008101821741F0E0918001F0E0E959FE4F18
:100B4000958F80938001FF91EF919F918F912F91CD
:100B50000F900FBE0F901F9018958081F4CF1F92B9
:100B60000F920FB60F9211242F933F938F939F9361
:100B7000AF93BF938091570190915801A091590173
:100B8000B0915A013091560123E0230F2D3758F5CB
:100B90000196A11DB11D209356018093570190939A
:100BA0005801A0935901B0935A018091520190913C
:100BB0005301A0915401B09155010196A11DB11DA1
:100BC0008093520190935301A0935401B093550127
:100BD000BF91AF919F918F913F912F910F900FBE39
:100BE0000F901F90189526E8230F0296A11DB11DA6
:100BF000D2CF1F920F920FB60F9211242F933F93D3
:100C00004F935F936F937F938F939F93AF93BF9314
:100C1000EF93FF93E0910A01F0910B010995FF9189
:100C2000EF91BF91AF919F918F917F916F915F9164
:100C30004F913F912F910F900FBE0F901F901895DD
:100C40001F920F920FB60F9211242F933F934F9341
:100C50005F936F937F938F939F93AF93BF93EF9324
:100C6000FF93E0910801F09109010995FF91EF913F
:100C7000BF91AF919F918F917F916F915F914F91B4
:100C80003F912F910F900FBE0F901F901895CF930B
:100C9000DF93CDB7DEB72D970FB6F894DEBF0FBE4A
:100CA000CDBF789484B5826084BD84B5816084BDF5
:100CB00085B5826085BD85B5816085BD80916E00FA
:100CC000816080936E00109281008091810082602B
:100CD0008093810080918100816080938100809168
:100CE00080008160809380008091B1008460809357
:100CF000B1008091B00081608093B00080917A0053
:100D0000846080937A0080917A00826080937A0078
:100D100080917A00816080937A0080917A00806867
:100D200080937A001092C100E0917701F0917801F0
:100D300082E08083E0917301F09174011082E09170
:100D40007501F09176018FEC808310927F01E09124
:100D50007B01F0917C0186E08083E0917901F09144
:100D60007A01808180618083E0917901F0917A013C
:100D7000808188608083E0917901F0917A0180819F
:100D800080688083E0917901F0917A0180818F7D84
:100D9000808360E082E00E94350261E085E00E948D
:100DA000350261E086E00E94350260E08EE00E943C
:100DB000350260E08FE00E94350280ED92E0909372
:100DC0000901809308018091690083608093690024
:100DD000E89A0E94C3027B018C0120E030E0A90167
:100DE0006D83FE828F83188729873A874B875C87BC
:100DF00060930C01F0920D0180930E0110930F018E
:100E00001092100110921101109212011092130110
:100E100080E090E0AAE7B4E48093630190936401DA
:100E2000A0936501B093660180E090E0A8ECB1E486
:100E300080935B0190935C01A0935D01B0935E0190
:100E400090E4392E21E93DEE42E451E460916301E2
:100E50007091640180916501909166010E947A0C05
:100E60000E94EC0C85E00E94660210925F011092D5
:100E7000600110926101109262010E94C3027B0125
:100E80008C0120E030E0A9016D83FE828F831887FA
:100E900029873A874B875C8760931401F09215018C
:100EA00080931601109317011092180110921901E6
:100EB00010921A0110921B011A82198209811A815B
:100EC0000E31110509F471C00E94C3029B01AC01EF
:100ED00060E070E080E090E0A0901401B090150117
:100EE000C0901601D0901701E0901801F090190100
:100EF00000911A0110911B010E94270FA1E00E948E
:100F0000300FE1F2DCF230927C0080917A00806454
:100F100080937A0080917A0086FDFCCF80917800E2
:100F200060917900762F682F072E000C880B990BA3
:100F30000E949C0A2AE037EB43E454E40E940D0C23
:100F400027E139ED4AE251EC0E947A0C9B01AC0199
:100F500060915F01709160018091610190916201E7
:100F60000E940E0C60935F01709360018093610199
:100F70009093620129813A812F5F3F4F3A83298301
:100F80000E94C3028B019C01609314011093150110
:100F900080931601309317011092180110921901D5
:100FA00010921A0110921B0189CF20E030E040EF2F
:100FB00051E460915F0170916001809161019091B5
:100FC00062010E947A0C9B01AC0120935F01309377
:100FD00060014093610150936201C0905B01D09029
:100FE0005C01E0905D01F0905E01C701B6010E94D6
:100FF0000D0C162F7D878D83092F462E572E682EB8
:10100000792E812C912C540120E030E0A901B2010D
:10101000C3010E94760D87FD13C09201A301C50193
:10102000B4010E940E0C4B015C0120E030E040E86E
:101030005FE3B201C3010E940D0C2B013C01E4CF20
:1010400020E030E040E850E4C701B6010E947B0D8B
:101050002B013C0120E030E040E450E4C701B60140
:101060000E947B0D69837A838B839C8326E23DE11A
:1010700045EE5AEBC301B2010E94FB0A2B013C0171
:1010800020E33CE446E65EE369817A818B819C81C2
:101090000E94FB0A9B01AC01C301B2010E940E0C2D
:1010A0002B013C01A7019601C701B6010E94FB0A72
:1010B0002FE135E84FE251E40E94FB0A9B01AC01AD
:1010C000C301B2010E940D0C2B013C0126E636E65D
:1010D00044E753E4C701B6010E94FB0A9B01AC013F
:1010E000C301B2010E940E0C20E030E541E055E45E
:1010F0000E940D0C6B017C0120E030E040EA50E4DE
:10110000612F7D858D81902F0E94FB0A2B013C0170
:10111000A5019401C501B4010E940E0C9B01AC0114
:10112000C301B2010E940E0C9B01AC01C701B601C4
:101130000E940E0C6B017C0120E030E0A9010E94AE
:10114000950A87FD19C020E030E04FE753E4C7015E
:10115000B6010E94760D18169CF0C701B6010E94D8
:10116000EC0C86E00E9466020E945001882309F47C
:1011700069CE0E947F0466CEC12CD12C7601EDCFC2
:10118000C12CD12C8FE7E82E83E4F82EE6CFE7E6DA
:10119000F1E01382128288EE93E0A0E0B0E0848355
:1011A0009583A683B78380E291E09183808385EC69
:1011B00090E09587848784EC90E09787868780EC21
:1011C00090E0918B808B81EC90E0938B828B82EC12
:1011D00090E0958B848B86EC90E0978B868B118EBC
:1011E000128E138E148E0895662777270C94240987
:1011F00044E052E00E94FD080895FA01A191B081F7
:10120000009719F41097E1F0CD01DC01CD010D90AC
:10121000002011F4C00113C0FB012191222319F019
:101220002015D9F7F3CFFB012191201519F41E9257
:10123000119606C02223C1F70D900020A1F7D0011E
:10124000FA01A193B0830895B0E0A0E0EAE2F9E0EA
:101250000C94CD0B5C017B016115710519F0DB016C
:101260008D939C9385010F5F1F4FF501D0818D2FCA
:1012700090E00E94740A6C01892BB9F5DD32B9F552
:101280000F5F1F4FD5011196DC91C1E05801F1E0CD
:10129000AF1AB10843E050E062EF70E0C5010E9470
:1012A0007D0A892B69F5680182E0C80ED11C45E0F2
:1012B00050E06DEE70E0C6010E947D0A892B21F49A
:1012C000680197E0C90ED11CE114F10419F0D701AF
:1012D000CD92DC9260E070E080E89FEFC111FFC02A
:1012E00060E070E080E89FE7FAC05801BBCFDB32D6
:1012F00029F485010E5F1F4FF501D181C0E0C6CFF3
:1013000043E050E06AEE70E0C5010E947D0A892B3F
:10131000E9F0F80110E000E020E030E0A9015F0111
:10132000B0ED8B2E8D0E89E08815C8F19C2E689447
:1013300091F88C2F8870C2FF16C0811102C00F5F18
:101340001F4F3196D501DC91C92DE9CFE114F1048D
:1013500029F00E5F1F4FF7011183008360E070E0FA
:1013600080EC9FE7BCC0882311F001501109A5E073
:10137000B0E00E94BC0B9B01AC01220F331F441F45
:10138000551F280D311D411D511D283999E9390777
:10139000490799E15907A8F2C6609C2ED2CFAEEF5B
:1013A0008A1206C0C3FD3CC09C2E689493F8C9CF36
:1013B000DF7DD534A9F580818D3239F4C061DF013C
:1013C0001296818162E070E006C0DF018B32C1F3CA
:1013D000119661E070E080535D01A61AB70A8A3069
:1013E000F8F4E0E8CE16ECE0DE065CF4B601660F39
:1013F000771F660F771FC60ED71ECC0CDD1CC80EDC
:10140000D11C5D01FFEFAF1ABF0A8C9180538A3067
:10141000A8F1C4FF03C0D194C194D1080C0D1D1DC7
:10142000C1FF09C0E114F10431F081E0A81AB1084C
:10143000D701AD92BC92CA01B9010E949A0AC37049
:10144000C33009F490584B015C0120E030E0A90161
:101450000E94950A882309F440C0C1E2D1E017FF39
:1014600005C0119501951109C9E0D1E06E01B8E1FF
:10147000CB1AD10880E2E82EF12C0FC0D501B1CFF4
:10148000FE0125913591459154910E191F09C50111
:10149000B4010E94FB0A4B015C01D501C4010E1589
:1014A0001F0574F72497F594E794CC16DD06A9F789
:1014B0008A2F880F8B2F881F8F3F49F020E030E064
:1014C000A901C501B4010E94950A811106C082E2FA
:1014D00090E09093070280930602C501B401CDB756
:1014E000DEB7ECE00C94E90B91110C94680B8032A0
:1014F00019F089508550C8F70895FB01DC0141506F
:10150000504088F08D9181341CF08B350CF4805E56
:10151000659161341CF06B350CF4605E861B6111C3
:1015200071F3990B0895881BFCCF0E94D70A08F429
:1015300081E00895E89409C097FB3EF4909580956A
:10154000709561957F4F8F4F9F4F9923A9F0F92F89
:1015500096E9BB279395F695879577956795B79507
:10156000F111F8CFFAF4BB0F11F460FF1BC06F5FED
:101570007F4F8F4F9F4F16C0882311F096E911C0FF
:10158000772321F09EE8872F762F05C0662371F020
:1015900096E8862F70E060E02AF09A95660F771F34
:1015A000881FDAF7880F9695879597F90895990F10
:1015B0000008550FAA0BE0E8FEEF16161706E8071D
:1015C000F907C0F012161306E407F50798F0621B3E
:1015D000730B840B950B39F40A2661F0232B242B13
:1015E000252B21F408950A2609F4A140A6958FEF32
:1015F000811D811D08950E940E0B0C94820B0E9488
:10160000740B38F00E947B0B20F0952311F00C94A2
:101610006B0B0C94710B11240C94B60B0E94930B62
:1016200070F3959FC1F3950F50E0551F629FF00135
:10163000729FBB27F00DB11D639FAA27F00DB11D4E
:10164000AA1F649F6627B00DA11D661F829F2227D7
:10165000B00DA11D621F739FB00DA11D621F839F5E
:10166000A00D611D221F749F3327A00D611D231F34
:10167000849F600D211D822F762F6A2F11249F5782
:1016800050409AF0F1F088234AF0EE0FFF1FBB1F85
:10169000661F771F881F91505040A9F79E3F510544
:1016A00080F00C946B0B0C94B60B5F3FE4F3983E08
:1016B000D4F3869577956795B795F795E7959F5FEE
:1016C000C1F7FE2B880F911D9695879597F9089580
:1016D00099278827089597F99F6780E870E060E070
:1016E00008959FEF80EC089500240A9416161706BB
:1016F00018060906089500240A9412161306140603
:1017000005060895092E0394000C11F4882352F065
:10171000BB0F40F4BF2B11F460FF04C06F5F7F4F1D
:101720008F4F9F4F089557FD9058440F551F59F004
:101730005F3F71F04795880F97FB991F61F09F3FBE
:1017400079F087950895121613061406551FF2CFE7
:101750004695F1DF08C0161617061806991FF1CF37
:1017600086957105610508940895E894BB2766275E
:101770007727CB0197F908950E94FE0BA59F900D46
:10178000B49F900DA49F800D911D112408952F9258
:101790003F924F925F926F927F928F929F92AF9201
:1017A000BF92CF92DF92EF92FF920F931F93CF934E
:1017B000DF93CDB7DEB7CA1BDB0B0FB6F894DEBFE5
:1017C0000FBECDBF09942A88398848885F846E840B
:1017D0007D848C849B84AA84B984C884DF80EE8055
:1017E000FD800C811B81AA81B981CE0FD11D0FB65E
:1017F000F894DEBF0FBECDBFED010895A29FB001EA
:10180000B39FC001A39F700D811D1124911DB29F34
:10181000700D811D1124911D08955058BB27AA27D2
:101820000E94250C0C94820B0E94740B38F00E94CD
:101830007B0B20F039F49F3F19F426F40C94710BC4
:101840000EF4E095E7FB0C946B0BE92F0E94930BD1
:1018500058F3BA17620773078407950720F079F4E5
:10186000A6F50C94B50B0EF4E0950B2EBA2FA02D17
:101870000B01B90190010C01CA01A0011124FF273D
:10188000591B99F0593F50F4503E68F11A16F04038
:10189000A22F232F342F4427585FF3CF4695379537
:1018A0002795A795F0405395C9F77EF41F16BA0BFC
:1018B000620B730B840BBAF09150A1F0FF0FBB1FAA
:1018C000661F771F881FC2F70EC0BA0F621F731FF3
:1018D000841F48F4879577956795B795F7959E3F50
:1018E00008F0B0CF9395880F08F09927EE0F9795E1
:1018F000879508950E948E0C0C94820B0E947B0B9E
:1019000058F00E94740B40F029F45F3F29F00C94CA
:101910006B0B51110C94B60B0C94710B0E94930B32
:1019200068F39923B1F3552391F3951B550BBB270E
:10193000AA2762177307840738F09F5F5F4F220F53
:10194000331F441FAA1FA9F335D00E2E3AF0E0E84A
:1019500032D091505040E695001CCAF72BD0FE2F94
:1019600029D0660F771F881FBB1F26173707480728
:10197000AB07B0E809F0BB0B802DBF01FF279358E0
:101980005F4F3AF09E3F510578F00C946B0B0C942E
:10199000B60B5F3FE4F3983ED4F386957795679551
:1019A000B795F7959F5FC9F7880F911D9695879515
:1019B00097F90895E1E0660F771F881FBB1F621734
:1019C00073078407BA0720F0621B730B840BBA0BF2
:1019D000EE1F88F7E09508950E94F30C6894B1110A
:1019E0000C94B60B08950E949B0B88F09F5798F0BB
:1019F000B92F9927B751B0F0E1F0660F771F881F14
:101A0000991F1AF0BA95C9F714C0B13091F00E942D
:101A1000B50BB1E008950C94B50B672F782F88278C
:101A2000B85F39F0B93FCCF3869577956795B39554
:101A3000D9F73EF490958095709561957F4F8F4FC3
:101A40009F4F089597FB16F40E94660D0C94290D84
:101A5000E894F92F96EBFF2381F012161306140673
:101A6000440B9395F69587957795679557954040E4
:101A7000FF23B9F71BC099270895882351F4985084
:101A8000D2F7872B762F652F542F432F322F20E04C
:101A9000B1F3121613061406440B88233AF09A95F4
:101AA000440F551F661F771F881FCAF755234AF436
:101AB000440F551F11F460FF04C06F5F7F4F8F4FBD
:101AC0009F4F880F9695879597F9089590958095E3
:101AD0007095609550954095309521953F4F4F4FAB
:101AE0005F4F6F4F7F4F8F4F9F4F08950E94D70AD0
:101AF00008F48FEF0895FA01EE0FFF1F30962105CD
:101B00003105A1F16115710561F48038BFE39B07D0
:101B100049F168949038810561F08038BFEF9B07E8
:101B200041F099234AF5FF3FE1053105210519F1FF
:101B3000E8940894E795D901AA2329F4AB2FBE2F86
:101B4000F85FD0F310C0FF5F70F4A695E0F7F739A7
:101B500050F019F0FF3A38F49F779F930DD00F9013
:101B600007FC9058089546F00C94710B60E070E00B
:101B700080E89FE308954FE79F775F934F933F93EC
:101B80002F930E947B0E2F913F914F915F910E9466
:101B9000FB0A0C94D80D0E94D70A880B990B089564
:101BA00029F416F00C946B0B0C94B50B0C94710B80
:101BB0000E949B0BA8F39638A0F707F80F92E894C1
:101BC0002BE33AEA48EB5FE70E94110B0F920F926A
:101BD0000F924DB75EB70F920E94C30EE8E6F0E099
:101BE0000E940A0E4F915F91EF91FF91E595EE1FD4
:101BF000FF1F49F0FE57E0684427EE0F441FFA9597
:101C0000E1F74195550B0E943D0E0F9007FE0C9495
:101C1000310E0895DF93CF931F930F93FF92EF92AE
:101C2000DF927B018C01689406C0DA2EEF010E94DE
:101C30000E0BFE01E894A5912591359145915591A2
:101C4000A6F3EF010E94250CFE019701A801DA948A
:101C500069F7DF90EF90FF900F911F91CF91DF9187
:101C600008959B01AC0160E070E080E89FE30C9474
:101C70007A0C0C946B0B0C94F70E0E949B0BD8F310
:101C80009923C9F3940F511DA3F39150504094F040
:101C900059F0882332F0660F771F881F915050400B
:101CA000C1F79E3F51052CF7880F911D969587959A
:101CB00097F908955F3FACF0983E9CF0BB2786955E
:101CC00077956795B79508F4B1609395C1F7BB0F09
:101CD00058F711F460FFE8CF6F5F7F4F8F4F9F4F32
:101CE000E3CF0C94B60B16F00C94F70E0C94710B1A
:101CF00068940C946B0B0E949B0BA8F39923C1F37F
:101D0000AEF3DF93CF931F930F93FF92C92FDD277D
:101D100088232AF02197660F771F881FDAF720E0C3
:101D200030E040E85FEB9FE3883920F0803E38F0F8
:101D300021968F770E940E0CE0E9F0E004C00E942B
:101D40000E0CEDEBF0E00E940A0E8B01BE01EC01DF
:101D5000FB2E6F5771097595771F880B990B0E94A1
:101D60009C0A28E132E741E35FE30E940E0BAF2DAE
:101D70009801AE01FF900F911F91CF91DF910E94CA
:101D8000250C0C94820BFA01DC01AA0FBB1F9B01EE
:101D9000AC01BF5728F4222733274427507820C0AE
:101DA000B75190F4AB2F0024469537952795011C29
:101DB000A395D2F3002071F0220F331F441FB39577
:101DC000DAF30ED00C940D0C61307105A0E88A078F
:101DD000B94630F49B01AC016627772788279078B5
:101DE000309621F0208331834283538308959F3FAF
:101DF00031F0915020F4879577956795B795880FC6
:101E0000911D9695879597F90895A1E21A2EAA1B20
:101E1000BB1BFD010DC0AA1FBB1FEE1FFF1FA2179A
:101E2000B307E407F50720F0A21BB30BE40BF50B97
:101E3000661F771F881F991F1A9469F76095709520
:101E4000809590959B01AC01BD01CF0108952A19A1
:101E50003B094C095D096E097F09800B910B0895C0
:101E60000024A7FD00942A173005400550056005A1
:101E70007005800590050895EE0FFF1F0590F49101
:101E8000E02D0994FB01DC014150504030F08D9170
:101E90000190801919F40020B9F7881B990B089557
:041EA000F894FFCFE4
:101EA400FFFFFFFFFFFFFFFFCF02CF02FFFFFFFF98
:101EB400FFFFFFFFFFFFFFFFFFFFFFFF000000002A
:101EC4007C01E6001301C9014401220136016E615F
:101ED4006E00696E66006F766600676574206375D0
:0C1EE4007272656E740020000D0A000090
:00000001FF
