:020000040000FA
:100000000C94BC000C9468070C9441070C94E40019
:100010000C94E4000C94E4000C94E4000C94E400D0
:100020000C94E4000C94E4000C94E4000C94E400C0
:100030000C94E4000C94E4000C94E4000C94E400B0
:100040000C94F7060C94E4000C94C5060C949F06DF
:100050000C94E4000C94E4000C94E4000C94E40090
:100060000C948F070C94E40007634236B79BD8A723
:100070001A39685618AEBAAB558C1D3CB7CC5763CD
:10008000BD6DEDFD753EF6177231BF000000803F7B
:1000900008000000BE922449123EABAAAA2ABECD97
:1000A000CCCC4C3E00000080BEABAAAAAA3E000009
:1000B0000000BF000000803F000000000008417801
:1000C000D3BB4387D1133D190E3CC3BD4282AD2B38
:1000D0003E68EC8276BED98FE1A93E4C80EFFFBE30
:1000E00001C4FF7F3F00000000004E414E494E49D1
:1000F0005459494E46CDCCCC3D0AD7233C17B7D1F5
:100100003877CC2B329595E6241FB14F0A0000209A
:10011000410000C84200401C4620BCBE4CCA1B0E19
:100120005AAEC59D7400000000240027002A00007C
:10013000000000250028002B00040404040404042B
:100140000402020202020203030303030301020486
:100150000810204080010204081020010204081049
:100160002000000008000201000003040700000056
:10017000000000000000AA0811241FBECFEFD8E045
:10018000DEBFCDBF22E0AEE5B1E001C01D92AF3BC6
:10019000B207E1F711E0A0E0B1E0EAE8F5E202C061
:1001A00005900D92AE35B107D9F710E0CCEBD0E059
:1001B00004C02197FE010E94AF12CB3BD107C9F7C3
:1001C0000E94E3080C94C3120C940000AF92BF92FB
:1001D000CF92DF92EF92FF920F931F93CF93DF9313
:1001E0006C017B018B01040F151FEB015E01AE1842
:1001F000BF08C017D10759F06991D601ED91FC9164
:100200000190F081E02DC6010995892B79F7C50190
:10021000DF91CF911F910F91FF90EF90DF90CF90E2
:10022000BF90AF900895FC01538D448D252F30E091
:10023000842F90E0821B930B541710F0CF960895F3
:1002400001970895FC01918D828D981761F0A28D20
:10025000AE0FBF2FB11D5D968C91928D9F5F9F73E6
:10026000928F90E008958FEF9FEF0895FC01918D9C
:10027000828D981731F0828DE80FF11D858D90E009
:1002800008958FEF9FEF0895FC01918D228D892FA6
:1002900090E0805C9F4F821B91098F73992708958E
:1002A00082E192E00E94440121E0892B09F420E0E0
:1002B000822F0895FC01A48DA80FB92FB11DA35A58
:1002C000BF4F2C91848D90E001968F739927848F76
:1002D000A689B7892C93A089B1898C918370806499
:1002E0008C93938D848D981306C00288F389E02D3A
:1002F00080818F7D80830895EF92FF920F931F93EB
:10030000CF93DF93EC0181E0888F9B8D8C8D9813C8
:100310001AC0E889F989808185FF15C09FB7F894D4
:10032000EE89FF896083E889F98980818370806420
:1003300080839FBF81E090E0DF91CF911F910F916B
:10034000FF90EF900895F62E0B8D10E00F5F1F4F7A
:100350000F731127E02E8C8D8E110CC00FB607FC89
:10036000FACFE889F989808185FFF5CFCE010E9417
:100370005A01F1CFEB8DEC0FFD2FF11DE35AFF4F2A
:10038000F0829FB7F8940B8FEA89FB8980818062A5
:10039000CFCFCF93DF93EC01888D8823B9F0AA8962
:1003A000BB89E889F9898C9185FD03C0808186FD30
:1003B0000DC00FB607FCF7CF8C9185FFF2CF80817F
:1003C00085FFEDCFCE010E945A01E9CFDF91CF9199
:1003D000089590E0FC01EF59FE4F2491FC01E35B8E
:1003E000FE4F3491FC01E75CFE4FE491EE23C9F02F
:1003F000222339F0233001F1A8F4213019F1223001
:1004000029F1F0E0EE0FFF1FE15DFE4FA591B491E1
:100410008FB7F894EC91611126C030953E233C9340
:100420008FBF08952730A9F02830C9F0243049F74C
:10043000809180008F7D03C0809180008F778093B2
:100440008000DFCF84B58F7784BDDBCF84B58F7D0F
:10045000FBCF8091B0008F778093B000D2CF809196
:10046000B0008F7DF9CF3E2BDACFCF93DF9390E0B2
:10047000FC01E35BFE4F2491875C9E4FFC0184915D
:100480008823D1F090E0880F991FFC01EB5DFE4FAF
:10049000A591B491FC01E15DFE4FC591D49161112C
:1004A0000EC09FB7F8948C91E22FE0958E238C9329
:1004B0002881E223E8839FBFDF91CF9108958FB712
:1004C000F894EC91E22BEC938FBFF6CF1F93CF9370
:1004D000DF93182FEB0161E00E943502209739F479
:1004E00060E0812FDF91CF911F910C94E901CF3F04
:1004F000D10511F461E0F5CFE12FF0E0EF59FE4FA7
:10050000E491E33031F140F4E130B1F0E230E1F078
:10051000C038D1057CF7E4CFE73029F1E83059F154
:10052000E430B1F780918000806280938000D093A6
:100530008B00C0938A0004C084B5806884BDC7BDA9
:10054000DF91CF911F91089584B5806284BDC8BDAD
:10055000F7CF80918000806880938000D0938900DD
:10056000C0938800EDCF8091B00080688093B00088
:10057000C093B300E5CF8091B00080628093B0005B
:10058000C093B400DDCF8E50806480937C00809156
:100590007A00806480937A0080917A0086FDFCCF97
:1005A000809178009091790008953FB7F8948091F8
:1005B000AE019091AF01A091B001B091B10126B50B
:1005C000A89B05C02F3F19F00196A11DB11D3FBF8B
:1005D000BA2FA92F982F8827BC01CD01620F711D5A
:1005E000811D911D42E0660F771F881F991F4A9554
:1005F000D1F708952FB7F8946091AA017091AB01DB
:100600008091AC019091AD012FBF089508951F9383
:10061000CF93DF93C1E0C0936501882399F1D09116
:10062000B8001091BA008091BC008A7B8093BC0016
:1006300060E082E10E94E90160E083E10E94E9015B
:100640001092D801C093D7011092B20161E082E10B
:100650000E94E90161E083E10E94E9018091B90013
:100660008E7F8093B9008091B9008D7F8093B9000F
:1006700088E48093B80085E48093BC001093BA00AE
:10068000D093B800DF91CF911F91089520918601FA
:10069000260F3327331F21323105ECF42091D80186
:1006A000FC0190E080E0243069F082E00895A091A0
:1006B00086012191AC014A595E4FA40FB52FB11D9F
:1006C0002C930196861798F380918601680F6093AA
:1006D000860180E0089581E0089508958FEF9FEFEF
:1006E00008958FEF9FEF08958091640190E09195B8
:1006F000819591090895CF92DF92EF92FF920F9327
:100700001F93CF93DF937C01CB018A0120910102DB
:10071000222389F0EB016B01C40ED51ECC15DD053B
:1007200069F06991D701ED91FC910190F081E02D84
:10073000C7010995F3CF642F0E944603C801DF91DA
:10074000CF911F910F91FF90EF90DF90CF90089580
:10075000CF93DF931F92CDB7DEB76983209101025B
:100760002223F9F02091FE01203258F021E030E000
:10077000FC013383228390E080E00F90DF91CF91E2
:1007800008958091FF01E82FF0E0E252FE4F998139
:1007900090838F5F8093FF018093FE0181E090E062
:1007A000ECCF61E0CE0101960E944603F7CF90E0C6
:1007B00080E00895AF92BF92CF92DF92EF92FF92C6
:1007C0000F931F93CF93DF93809162019091630108
:1007D00001969093630180936201C2970CF461C00B
:1007E000A0900C01B0900D01C0900E01D0900F01AF
:1007F000E0901001F090110100911201109113018D
:10080000A0920001B0920101C0920201D0920301B6
:10081000E0920401F0920501009306011093070194
:100820000E94FA02DC01CB0160930C0190930D0150
:10083000A0930E01B0930F011092100110921101BC
:1008400010921201109213010E94FA02DC019B0126
:10085000AD0160E070E080E090E00E949A120E949A
:10086000951020E030E04AE754E40E94ED0F9B0130
:10087000AC0160E070E088EC91E40E94ED0F20E0B4
:1008800030E040E752E40E946E0E60935E01709388
:100890005F01809360019093610110926301109257
:1008A0006201DF91CF911F910F91FF90EF90DF9048
:1008B000CF90BF90AF900895FC0101900020E9F720
:1008C0003197AF01481B590BBC0182E192E00C94B7
:1008D000E6008F929F92AF92BF920F931F93CF9398
:1008E000DF93CDB7DEB7A1970FB6F894DEBF0FBE8A
:1008F000CDBF19A2423008F44AE08E010F5D1F4FB0
:10090000842E912CB12CA12CA50194010E94781267
:10091000E62FB901CA01EA30F4F4E05DD801EE93A4
:100920008D01232B242B252B79F790E080E0109765
:1009300019F0CD010E945C04A1960FB6F894DEBFB9
:100940000FBECDBFDF91CF911F910F91BF90AF90A0
:100950009F908F900895E95CE1CF4F925F926F92E4
:100960007F928F929F92AF92BF92CF92DF92EF923F
:10097000FF920F931F93CF936B017C01742EAC01F8
:100980009B010E943E11882399F080E491E0CF9171
:100990001F910F91FF90EF90DF90CF90BF90AF909D
:1009A0009F908F907F906F905F904F900C945C041D
:1009B00046015701E894B7F82FEF3FEF4FE75FE7A5
:1009C000C501B4010E943E1181110DC02FEF3FEF10
:1009D0004FE75FE7C501B4010E94080E18161CF42A
:1009E00084E491E0D4CF2FEF3FEF4FE75FE4C701FE
:1009F000B6010E94E91018161CF488E491E0C7CFF4
:100A00002FEF3FEF4FE75FECC701B6010E94080EE2
:100A100087FDF3CF20E030E0A901C701B6010E94B5
:100A2000080E10E000E087FF0AC06DE282E192E06C
:100A30000E947C018C01F7FAF094F7F8F094C0E082
:100A400060E070E080E09FE37C1641F020E030E061
:100A500040E251E40E94ED0FCF5FF6CFA70196016F
:100A60000E94810F2B013C010E9466104B015C012A
:100A70004AE00E9469047C01E00EF11ECC23C1F122
:100A8000C501B4010E940D0E9B01AC01C301B2016E
:100A90000E94800F4B015C016EE282E192E00E94B5
:100AA0007C01E80EF91EC15018F120E030E040E270
:100AB00051E4C501B4010E946E0E2B013C010E945D
:100AC00066104B01B12CA12C4AE0C501B4010E9473
:100AD0006904E80EF91EC501B4010E940D0E9B01C8
:100AE000AC01C301B2010E94800F4B015C01DBCF5E
:100AF000C701CF911F910F91FF90EF90DF90CF90A2
:100B0000BF90AF909F908F907F906F905F904F902D
:100B100008958F929F92AF92BF92CF92DF92EF9201
:100B2000FF920F931F93CF93DF93CDB7DEB7CC50D7
:100B3000D4400FB6F894DEBF0FBECDBF8E010F5F5D
:100B40001F4F7E018FEFE81A8BEFF80AD02EC12ECF
:100B50000E94FA0260931A0270931B0280931C0297
:100B600090931D0282E192E00E94220197FF9DC0B6
:100B70000E94FA0280901A0290901B02A0901C0220
:100B8000B0901D02681979098A099B0980901602A4
:100B900090901702A0901802B0901902681579057C
:100BA0008A059B05F8F282E192E00E94C9014BE0C0
:100BB00050E06CE471E08D2D9C2D0E94B512892BC4
:100BC00009F041C060910A0270910B0280910C0201
:100BD00090910D0242E00E94AD0488E591E00E94F0
:100BE0005C0460915E0170915F0180916001909161
:100BF000610142E00E94AD0488E591E00E945C043E
:100C000060910202709103028091040290910502AA
:100C100042E00E94AD048AE591E00E945C04C45F5A
:100C2000DB4F0FB6F894DEBF0FBECDBFDF91CF9183
:100C30001F910F91FF90EF90DF90CF90BF90AF90FA
:100C40009F908F90089568E571E08D2D9C2D0E94F6
:100C50006B0C8701009779F00E94670CF801619393
:100C60007193819391938F0168E571E090E080E04A
:100C70000E946B0CEFCFF70180819181A281B3813B
:100C80008093060290930702A0930802B093090292
:100C900084819581A681B78180930E0290930F0283
:100CA000A0931002B0931102BACF8A30910509F4D3
:100CB0007ACFF80181938F01EE16FF0609F048CF35
:100CC00072CF0E94500181110C948905089585ED21
:100CD0008093BC008091DA019091DB01A091DC014E
:100CE000B091DD010796A11DB11D23E0B695A79532
:100CF000979587952A95D1F72091BC0024FD03C0D4
:100D00001092D80108954091DA015091DB01609171
:100D1000DC017091DD01452B462B472B69F30097D1
:100D2000A105B10541F025E32A95F1F700000197EF
:100D3000A109B109E1CF8091D9010C9407031F9259
:100D40000F920FB60F9211242F933F934F935F93FF
:100D50006F937F938F939F93AF93BF93EF93FF9383
:100D600082E192E00E945A01FF91EF91BF91AF9111
:100D70009F918F917F916F915F914F913F912F91B3
:100D80000F900FBE0F901F9018951F920F920FB6E5
:100D90000F9211242F938F939F93EF93FF93E091E2
:100DA0002202F09123028081E0912802F091290231
:100DB00082FD1BC0908180912B028F5F8F732091E9
:100DC0002C02821741F0E0912B02F0E0EE5EFD4F25
:100DD000958F80932B02FF91EF919F918F912F918F
:100DE0000F900FBE0F901F9018958081F4CF1F9227
:100DF0000F920FB60F9211242F933F938F939F93CF
:100E0000AF93BF938091AA019091AB01A091AC01E7
:100E1000B091AD013091A90123E0230F2D3758F592
:100E20000196A11DB11D2093A9018093AA01909361
:100E3000AB01A093AC01B093AD018091AE01909154
:100E4000AF01A091B001B091B1010196A11DB11DFA
:100E50008093AE019093AF01A093B001B093B10124
:100E6000BF91AF919F918F913F912F910F900FBEA6
:100E70000F901F90189526E8230F0296A11DB11D13
:100E8000D2CF1F920F920FB60F9211242F933F9340
:100E90004F935F936F937F938F939F93AF93BF9382
:100EA000EF93FF93E0910A01F0910B010995FF91F7
:100EB000EF91BF91AF919F918F917F916F915F91D2
:100EC0004F913F912F910F900FBE0F901F9018954B
:100ED0001F920F920FB60F9211242F933F934F93AF
:100EE0005F936F937F938F939F93AF93BF93EF9392
:100EF000FF93E0910801F09109010995FF91EF91AD
:100F0000BF91AF919F918F917F916F915F914F9121
:100F10003F912F910F900FBE0F901F9018951F9229
:100F20000F920FB60F9211242F933F934F935F931D
:100F30006F937F938F939F93AF93BF93EF93FF93A1
:100F40008091B900887F803609F44AC0F0F5883274
:100F500009F4A5C018F5803109F499C0B8F48823C4
:100F600009F4F5C0883009F492C0FF91EF91BF9168
:100F7000AF919F918F917F916F915F914F913F9131
:100F80002F910F900FBE0F901F901895883109F484
:100F900086C0803251F78093D60114C0803409F4A2
:100FA0009BC040F48033B9F38833F9F68093D601BF
:100FB00085ECAEC0803509F483C0883509F494C04F
:100FC000883499F60E946706D0CF883909F48AC020
:100FD00038F5883729F050F4883611F0803729F633
:100FE00083E08093D8011092A80155C0883809F495
:100FF00079C0803919F0803809F0B7CF8091A80105
:10100000803208F06FC0E091A80181E08E0F8093DC
:10101000A8018091BB00F0E0E857FE4F80833BC001
:10102000803B39F0D0F4803A09F477C0883A09F06F
:101030009CCF84E08093D8011092870110928601A2
:10104000F0E0E0E009958091860181110FC081E018
:10105000809386011092660109C0803C09F4A8CFF4
:10106000883C09F4A5CF883B09F07FCFE091870148
:1010700081E08E0F80938701F0E0EA59FE4F808176
:101080008093BB00909187018091860129C0809157
:10109000B3018093BB0085EC8093BC0066CF909138
:1010A000D5018091D401981758F5E091D50181E0E0
:1010B0008E0F8093D501F0E0EC54FE4F8081E9CF94
:1010C000E091D50181E08E0F8093D5018091BB0026
:1010D000F0E0EC54FE4F80839091D5018091D401D3
:1010E0009817C8F285E8D8CFE091D50181E08E0F3E
:1010F0008093D5018091BB00F0E0EC54FE4F8083DB
:101100008091D70181115ECF81E08093B20184EAA2
:101110008093BC001092D80128CF85EC8093BC004E
:101120001092D8018091A801803230F4E091A8019A
:10113000F0E0E857FE4F10826091A80170E088E867
:1011400091E0F0E0E0E009951092A8010ECF109236
:10115000D60138CFE2E1F2E01382128288EE93E00A
:10116000A0E0B0E084839583A683B78320E231E0DA
:101170003183208325EC30E03587248724EC30E070
:101180003787268720EC30E0318B208B21EC30E054
:10119000338B228B22EC30E0358B248B26EC30E035
:1011A000378B268B118E128E138E148EEFEAF2E09F
:1011B0001382128284839583A683B78382E391E0AE
:1011C000918380830895CF93DF93CDB7DEB72D97BA
:1011D0000FB6F894DEBF0FBECDBF789484B58260A1
:1011E00084BD84B5816084BD85B5826085BD85B5CB
:1011F000816085BD80916E00816080936E00109249
:1012000081008091810082608093810080918100C3
:101210008160809381008091800081608093800054
:101220008091B10084608093B1008091B0008160B2
:101230008093B00080917A00846080937A008091DE
:101240007A00826080937A0080917A008160809336
:101250007A0080917A00806880937A001092C100B1
:10126000E0912202F091230282E08083E0911E024D
:10127000F0911F021082E0912002F09121028FEC88
:10128000808310922A02E0912602F091270286E0E4
:101290008083E0912402F091250280818061808327
:1012A000E0912402F0912502808188608083E091A2
:1012B0002402F0912502808180688083E0912402DD
:1012C000F091250280818F7D808360E082E00E9422
:1012D000350261E085E00E94350261E086E00E940F
:1012E000350260E08EE00E94350260E08FE00E94EF
:1012F000350260E08FE00E94350281E080930102B8
:1013000080E4809300021092FF011092FE0160E0E1
:101310008FEA92E00E94A80360E28FEA92E00E94C6
:10132000A803E090FE01E9820E2D013208F093C07F
:101330000E94D5026B017C018091D801811166C0A9
:1013400082E08093D80181E08093D7018FEF809372
:10135000D6011092D50119811093D401AEEDB1E000
:10136000E4EBF1E080E0E980E81263C11092B301A0
:101370008091B30180688093B3018091B201813084
:1013800009F05BC11092B2010E94D5026B017C0191
:101390008091B3018093BB008091DA019091DB01D1
:1013A000A091DC01B091DD01892B8A2B8B2B99F068
:1013B0000E94D5020091DA011091DB012091DC013D
:1013C0003091DD016C197D098E099F0906171707F9
:1013D00028073907E0F18091BC0083FDD9CF85EC67
:1013E0008093BC000E94D5026B017C018091D801E2
:1013F000823009F424C18091D6018F3F61F1809140
:10140000D601803241F18091D60125C08091DA0168
:101410009091DB01A091DC01B091DD01892B8A2B39
:101420008B2B09F489CF0E94D5020091DA0110912B
:10143000DB012091DC013091DD016C197D098E0901
:101440009F09061717072807390708F075CF8091FD
:10145000D9010E9407031092FF011092FE01109221
:1014600001028AED93E09093090180930801809135
:101470006900836080936900E89A0E94FA027B0108
:101480008C0120E030E0A9016D83FE828F831887F4
:1014900029873A874B875C8760930C01F0920D0196
:1014A00080930E0110930F01109210011092110100
:1014B000109212011092130180E090E0AAE7B4E4C8
:1014C00080930E0290930F02A0931002B09311022A
:1014D00080E090E0A8ECB1E48093060290930702CC
:1014E000A0930802B093090221E93DEE42E451E4E1
:1014F00060910E0270910F02809110029091110282
:101500000E94ED0F0E945F1085E00E94660210921B
:101510000A0210920B0210920C0210920D020E940D
:10152000FA027B018C0120E030E0A9016D83FE828C
:101530008F83188729873A874B875C8760931401CC
:10154000F092150180931601109317011092180163
:101550001092190110921A0110921B011A8219821D
:1015600009811A810E31110509F48BC00E94FA021B
:101570009B01AC0160E070E080E090E0A09014017D
:10158000B0901501C0901601D0901701E09018019D
:10159000F090190100911A0110911B010E949A12FA
:1015A000A1E00E94A312E1F2DCF28EE00E94C302ED
:1015B000BC01990F880B990B0E940F0E2AE037EBA4
:1015C00043E454E40E94800F27E139ED4AE251ECF4
:1015D0000E94ED0F9B01AC0160910A0270910B0219
:1015E00080910C0290910D020E94810F60930A027B
:1015F00070930B0280930C0290930D0229813A8123
:101600002F5F3F4F3A8329830E94FA028B019C018E
:101610006093140110931501809316013093170104
:10162000109218011092190110921A0110921B01C8
:1016300097CF9D9191938F5F96CE85EED1CE80917D
:10164000DA019091DB01A091DC01B091DD01892BE1
:101650008A2B8B2B09F4CACE0E94D5020091DA01A5
:101660001091DB012091DC013091DD016C197D09C5
:101670008E099F09061717072807390708F0B6CE05
:10168000E6CE20E030E040EF51E460910A02709134
:101690000B0280910C0290910D020E94ED0F9B01B4
:1016A000AC0120930A0230930B0240930C0250933A
:1016B0000D02C0900602D0900702E0900802F09060
:1016C0000902C701B6010E94800F162F7D878D8306
:1016D000092F462E572E682E792E812C912C5401DD
:1016E00020E030E0A901B201C3010E94E91087FDAA
:1016F00013C09201A301C501B4010E94810F4B01E7
:101700005C0120E030E040E85FE3B201C3010E94E9
:10171000800F2B013C01E4CF20E030E040E850E4B2
:10172000C701B6010E94EE102B013C0120E030E021
:1017300040E450E4C701B6010E94EE1069837A8349
:101740008B839C8326E23DE145EE5AEBC301B20157
:101750000E946E0E2B013C0120E33CE446E65EE372
:1017600069817A818B819C810E946E0E9B01AC0104
:10177000C301B2010E94810F2B013C01A701960118
:10178000C701B6010E946E0E2FE135E84FE251E429
:101790000E946E0E9B01AC01C301B2010E94800F3A
:1017A0002B013C0126E636E644E753E4C701B601C7
:1017B0000E946E0E9B01AC01C301B2010E94810F19
:1017C00020E030E541E055E40E94800F6B017C0190
:1017D00020E030E040E751E4612F7D858D81902F3E
:1017E0000E946E0E2B013C0120E030E040EA50E404
:1017F000C501B4010E946E0E9B01AC01C301B20190
:101800000E94810F9B01AC01C701B6010E94810FAC
:101810006B017C0120E030E0A9010E94080E87FDE9
:101820004BC020E030E04FE753E4C701B6010E940F
:10183000E91018160CF444C0C701B6010E945F10ED
:1018400086E00E9466028FE00E94C302BC01990FED
:10185000880B990B0E940F0E9B01AC0160E070E0B9
:101860008AEF93E40E94800F28EA32E74CEB57E4BA
:101870000E946E0E2FE632E143E85AE30E946E0E9C
:101880002AEE3DE740EB55E40E94ED0F20E030E00A
:1018900040EE50E40E94810F6093020270930302B5
:1018A00080930402909305020E945001882309F45A
:1018B0001BCE0E94890518CEC12CD12C7601BCCF3D
:1018C000C12CD12C8FE7E82E83E4F82EB5CF662704
:1018D00077270C94970C4BEB52E00E94700C089504
:1018E000FA01A191B081009719F41097E1F0CD01B0
:1018F000DC01CD010D90002011F4C00113C0FB01EB
:101900002191222319F02015D9F7F3CFFB01219162
:10191000201519F41E92119606C02223C1F70D90CE
:101920000020A1F7D001FA01A193B0830895B0E09F
:10193000A0E0EDE9FCE00C94400F5C017B01611537
:10194000710519F0DB018D939C9385010F5F1F4F8B
:10195000F501D0818D2F90E00E94E70D6C01892B5D
:10196000B9F5DD32B9F50F5F1F4FD5011196DC9146
:10197000C1E05801F1E0AF1AB10843E050E062EF76
:1019800070E0C5010E94F00D892B69F5680182E0C5
:10199000C80ED11C45E050E06DEE70E0C6010E941B
:1019A000F00D892B21F4680197E0C90ED11CE114D8
:1019B000F10419F0D701CD92DC9260E070E080E88C
:1019C0009FEFC111FFC060E070E080E89FE7FAC0C0
:1019D0005801BBCFDB3229F485010E5F1F4FF501A3
:1019E000D181C0E0C6CF43E050E06AEE70E0C501AF
:1019F0000E94F00D892BE9F0F80110E000E020E0F2
:101A000030E0A9015F01B0ED8B2E8D0E89E08815C5
:101A1000C8F19C2E689491F88C2F8870C2FF16C074
:101A2000811102C00F5F1F4F3196D501DC91C92D86
:101A3000E9CFE114F10429F00E5F1F4FF701118384
:101A4000008360E070E080EC9FE7BCC0882311F069
:101A500001501109A5E0B0E00E942F0F9B01AC01DD
:101A6000220F331F441F551F280D311D411D511DCD
:101A7000283999E93907490799E15907A8F2C66059
:101A80009C2ED2CFAEEF8A1206C0C3FD3CC09C2E66
:101A9000689493F8C9CFDF7DD534A9F580818D3264
:101AA00039F4C061DF011296818162E070E006C006
:101AB000DF018B32C1F3119661E070E080535D016C
:101AC000A61AB70A8A30F8F4E0E8CE16ECE0DE0693
:101AD0005CF4B601660F771F660F771FC60ED71E20
:101AE000CC0CDD1CC80ED11C5D01FFEFAF1ABF0A84
:101AF0008C9180538A30A8F1C4FF03C0D194C19463
:101B0000D1080C0D1D1DC1FF09C0E114F10431F015
:101B100081E0A81AB108D701AD92BC92CA01B901FF
:101B20000E940D0EC370C33009F490584B015C0144
:101B300020E030E0A9010E94080E882309F440C08B
:101B4000C1E2D1E017FF05C0119501951109C9E067
:101B5000D1E06E01B8E1CB1AD10880E2E82EF12C79
:101B60000FC0D501B1CFFE0125913591459154911A
:101B70000E191F09C501B4010E946E0E4B015C01D4
:101B8000D501C4010E151F0574F72497F594E79449
:101B9000CC16DD06A9F78A2F880F8B2F881F8F3F61
:101BA00049F020E030E0A901C501B4010E94080E0F
:101BB000811106C082E290E09093BE028093BD0244
:101BC000C501B401CDB7DEB7ECE00C945C0F911108
:101BD0000C94DB0E803219F089508550C8F70895B7
:101BE000FB01DC014150504088F08D9181341CF0A4
:101BF0008B350CF4805E659161341CF06B350CF410
:101C0000605E861B611171F3990B0895881BFCCFF0
:101C10000E944A0E08F481E00895E89409C097FBF9
:101C20003EF490958095709561957F4F8F4F9F4FB3
:101C30009923A9F0F92F96E9BB279395F6958795F7
:101C400077956795B795F111F8CFFAF4BB0F11F4BA
:101C500060FF1BC06F5F7F4F8F4F9F4F16C0882361
:101C600011F096E911C0772321F09EE8872F762F97
:101C700005C0662371F096E8862F70E060E02AF0D8
:101C80009A95660F771F881FDAF7880F96958795C4
:101C900097F90895990F0008550FAA0BE0E8FEEF99
:101CA00016161706E807F907C0F012161306E40720
:101CB000F50798F0621B730B840B950B39F40A2619
:101CC00061F0232B242B252B21F408950A2609F4F7
:101CD000A140A6958FEF811D811D08950E94810E60
:101CE0000C94F50E0E94E70E38F00E94EE0E20F0E4
:101CF000952311F00C94DE0E0C94E40E11240C9438
:101D0000290F0E94060F70F3959FC1F3950F50E0C5
:101D1000551F629FF001729FBB27F00DB11D639F9D
:101D2000AA27F00DB11DAA1F649F6627B00DA11D43
:101D3000661F829F2227B00DA11D621F739FB00DE9
:101D4000A11D621F839FA00D611D221F749F332759
:101D5000A00D611D231F849F600D211D822F762FF2
:101D60006A2F11249F5750409AF0F1F088234AF0CF
:101D7000EE0FFF1FBB1F661F771F881F915050403B
:101D8000A9F79E3F510580F00C94DE0E0C94290FAC
:101D90005F3FE4F3983ED4F3869577956795B795C2
:101DA000F795E7959F5FC1F7FE2B880F911D9695DC
:101DB000879597F9089599278827089597F99F6738
:101DC00080E870E060E008959FEF80EC08950024C3
:101DD0000A941616170618060906089500240A9490
:101DE00012161306140605060895092E0394000C16
:101DF00011F4882352F0BB0F40F4BF2B11F460FFA5
:101E000004C06F5F7F4F8F4F9F4F089557FD9058CD
:101E1000440F551F59F05F3F71F04795880F97FBAE
:101E2000991F61F09F3F79F0879508951216130668
:101E30001406551FF2CF4695F1DF08C01616170697
:101E40001806991FF1CF86957105610508940895CC
:101E5000E894BB2766277727CB0197F908950E945E
:101E6000710FA59F900DB49F900DA49F800D911DA3
:101E7000112408952F923F924F925F926F927F921A
:101E80008F929F92AF92BF92CF92DF92EF92FF928A
:101E90000F931F93CF93DF93CDB7DEB7CA1BDB0B36
:101EA0000FB6F894DEBF0FBECDBF09942A883988DB
:101EB00048885F846E847D848C849B84AA84B984E2
:101EC000C884DF80EE80FD800C811B81AA81B981EE
:101ED000CE0FD11D0FB6F894DEBF0FBECDBFED0102
:101EE0000895A29FB001B39FC001A39F700D811DF3
:101EF0001124911DB29F700D811D1124911D089513
:101F00005058BB27AA270E94980F0C94F50E0E94E8
:101F1000E70E38F00E94EE0E20F039F49F3F19F4DE
:101F200026F40C94E40E0EF4E095E7FB0C94DE0E20
:101F3000E92F0E94060F58F3BA1762077307840748
:101F4000950720F079F4A6F50C94280F0EF4E0958F
:101F50000B2EBA2FA02D0B01B90190010C01CA0163
:101F6000A0011124FF27591B99F0593F50F4503E0E
:101F700068F11A16F040A22F232F342F4427585F00
:101F8000F3CF469537952795A795F0405395C9F718
:101F90007EF41F16BA0B620B730B840BBAF09150D0
:101FA000A1F0FF0FBB1F661F771F881FC2F70EC06F
:101FB000BA0F621F731F841F48F487957795679542
:101FC000B795F7959E3F08F0B0CF9395880F08F02E
:101FD0009927EE0F9795879508950E9401100C940C
:101FE000F50E0E94EE0E58F00E94E70E40F029F424
:101FF0005F3F29F00C94DE0E51110C94290F0C94C4
:10200000E40E0E94060F68F39923B1F3552391F370
:10201000951B550BBB27AA2762177307840738F057
:102020009F5F5F4F220F331F441FAA1FA9F335D0B4
:102030000E2E3AF0E0E832D091505040E695001C68
:10204000CAF72BD0FE2F29D0660F771F881FBB1F22
:10205000261737074807AB07B0E809F0BB0B802D00
:10206000BF01FF2793585F4F3AF09E3F510578F02C
:102070000C94DE0E0C94290F5F3FE4F3983ED4F3EA
:10208000869577956795B795F7959F5FC9F7880F00
:10209000911D9695879597F90895E1E0660F771F52
:1020A000881FBB1F621773078407BA0720F0621BE3
:1020B000730B840BBA0BEE1F88F7E09508950E940E
:1020C00066106894B1110C94290F08950E940E0FA8
:1020D00088F09F5798F0B92F9927B751B0F0E1F0E9
:1020E000660F771F881F991F1AF0BA95C9F714C099
:1020F000B13091F00E94280FB1E008950C94280FA0
:10210000672F782F8827B85F39F0B93FCCF38695D1
:1021100077956795B395D9F73EF49095809570952E
:1021200061957F4F8F4F9F4F089597FB16F40E9444
:10213000D9100C949C10E894F92F96EBFF2381F0B2
:10214000121613061406440B9395F695879577950A
:10215000679557954040FF23B9F71BC0992708950D
:10216000882351F49850D2F7872B762F652F542F60
:10217000432F322F20E0B1F3121613061406440B3E
:1021800088233AF09A95440F551F661F771F881FC2
:10219000CAF755234AF4440F551F11F460FF04C0D9
:1021A0006F5F7F4F8F4F9F4F880F9695879597F959
:1021B00008959095809570956095509540953095CF
:1021C00021953F4F4F4F5F4F6F4F7F4F8F4F9F4F27
:1021D00008950E944A0E08F48FEF0895FA01EE0F59
:1021E000FF1F309621053105A1F16115710561F4DC
:1021F0008038BFE39B0749F168949038810561F00E
:102200008038BFEF9B0741F099234AF5FF3FE10576
:102210003105210519F1E8940894E795D901AA231D
:1022200029F4AB2FBE2FF85FD0F310C0FF5F70F41E
:10223000A695E0F7F73950F019F0FF3A38F49F7798
:102240009F930DD00F9007FC9058089546F00C9482
:10225000E40E60E070E080E89FE308954FE79F7729
:102260005F934F933F932F930E94EE112F913F91D5
:102270004F915F910E946E0E0C944B110E944A0E7A
:10228000880B990B089529F416F00C94DE0E0C942B
:10229000280F0C94E40E0E940E0FA8F39638A0F7B6
:1022A00007F80F92E8942BE33AEA48EB5FE70E94C5
:1022B000840E0F920F920F924DB75EB70F920E944D
:1022C0003612E8E6F0E00E947D114F915F91EF91A8
:1022D000FF91E595EE1FFF1F49F0FE57E068442788
:1022E000EE0F441FFA95E1F74195550B0E94B0118E
:1022F0000F9007FE0C94A4110895DF93CF931F93C2
:102300000F93FF92EF92DF927B018C01689406C0DD
:10231000DA2EEF010E94810EFE01E894A59125912D
:10232000359145915591A6F3EF010E94980FFE015A
:102330009701A801DA9469F7DF90EF90FF900F9171
:102340001F91CF91DF9108959B01AC0160E070E097
:1023500080E89FE30C94ED0F0C94DE0E0C946A124F
:102360000E940E0FD8F39923C9F3940F511DA3F3C4
:102370009150504094F059F0882332F0660F771F47
:10238000881F91505040C1F79E3F51052CF7880F90
:10239000911D9695879597F908955F3FACF0983E0B
:1023A0009CF0BB27869577956795B79508F4B16043
:1023B0009395C1F7BB0F58F711F460FFE8CF6F5F3B
:1023C0007F4F8F4F9F4FE3CF0C94290F16F00C9443
:1023D0006A120C94E40E68940C94DE0E0E940E0FA8
:1023E000A8F39923C1F3AEF3DF93CF931F930F9319
:1023F000FF92C92FDD2788232AF02197660F771FC8
:10240000881FDAF720E030E040E85FEB9FE388398F
:1024100020F0803E38F021968F770E94810FE0E90E
:10242000F0E004C00E94810FEDEBF0E00E947D110E
:102430008B01BE01EC01FB2E6F5771097595771F5B
:10244000880B990B0E940F0E28E132E741E35FE30E
:102450000E94810EAF2D9801AE01FF900F911F9148
:10246000CF91DF910E94980F0C94F50EFA01DC01D8
:10247000AA0FBB1F9B01AC01BF5728F422273327AB
:102480004427507820C0B75190F4AB2F00244695D4
:1024900037952795011CA395D2F3002071F0220FE8
:1024A000331F441FB395DAF30ED00C94800F6130C4
:1024B0007105A0E88A07B94630F49B01AC01662794
:1024C000772788279078309621F0208331834283C4
:1024D000538308959F3F31F0915020F4879577956D
:1024E0006795B795880F911D9695879597F90895EB
:1024F000A1E21A2EAA1BBB1BFD010DC0AA1FBB1F08
:10250000EE1FFF1FA217B307E407F50720F0A21B79
:10251000B30BE40BF50B661F771F881F991F1A94E6
:1025200069F760957095809590959B01AC01BD0110
:10253000CF0108952A193B094C095D096E097F09ED
:10254000800B910B08950024A7FD00942A173005F5
:102550004005500560057005800590050895EE0F53
:10256000FF1F0590F491E02D0994FB01DC0141501F
:10257000504030F08D910190801919F40020B9F786
:10258000881B990B0895F894FFCFFFFFFFFFFFFF13
:10259000FFFF06030603FFFFFFFFFFFFFFFFFFFF35
:1025A000FFFFFFFFFFFF000000007C01E6001301BA
:1025B000C90144012201360100000000A8037B0389
:1025C000D7036D03740371036E036E616E00696E51
:1025D00066006F7666006765742063757272656E5B
:0825E000740020000D0A000048
:107E0000112484B714BE81FFF0D085E080938100F7
:107E100082E08093C00088E18093C10086E0809377
:107E2000C20080E18093C4008EE0C9D0259A86E02C
:107E300020E33CEF91E0309385002093840096BBD3
:107E4000B09BFECF1D9AA8958150A9F7CC24DD24C4
:107E500088248394B5E0AB2EA1E19A2EF3E0BF2EE7
:107E6000A2D0813461F49FD0082FAFD0023811F036
:107E7000013811F484E001C083E08DD089C08234E0
:107E800011F484E103C0853419F485E0A6D080C0E4
:107E9000853579F488D0E82EFF2485D0082F10E0AE
:107EA000102F00270E291F29000F111F8ED06801E7
:107EB0006FC0863521F484E090D080E0DECF843638
:107EC00009F040C070D06FD0082F6DD080E0C81688
:107ED00080E7D80618F4F601B7BEE895C0E0D1E017
:107EE00062D089930C17E1F7F0E0CF16F0E7DF06D8
:107EF00018F0F601B7BEE89568D007B600FCFDCFD4
:107F0000A601A0E0B1E02C9130E011968C91119780
:107F100090E0982F8827822B932B1296FA010C0160
:107F200087BEE89511244E5F5F4FF1E0A038BF0790
:107F300051F7F601A7BEE89507B600FCFDCF97BE46
:107F4000E89526C08437B1F42ED02DD0F82E2BD052
:107F50003CD0F601EF2C8F010F5F1F4F84911BD097
:107F6000EA94F801C1F70894C11CD11CFA94CF0C13
:107F7000D11C0EC0853739F428D08EE10CD085E9AC
:107F80000AD08FE07ACF813511F488E018D01DD067
:107F900080E101D065CF982F8091C00085FFFCCF94
:107FA0009093C60008958091C00087FFFCCF809118
:107FB000C00084FD01C0A8958091C6000895E0E648
:107FC000F0E098E1908380830895EDDF803219F02E
:107FD00088E0F5DFFFCF84E1DECF1F93182FE3DFCA
:107FE0001150E9F7F2DF1F91089580E0E8DFEE27F6
:047FF000FF270994CA
:027FFE00040479
:00000001FF
